{
  "contractName": "BackableVehicle",
  "abi": [
    {
      "constant": false,
      "inputs": [],
      "name": "purchaseListing",
      "outputs": [],
      "payable": true,
      "stateMutability": "payable",
      "type": "function"
    },
    {
      "constant": true,
      "inputs": [],
      "name": "holdingsLocked",
      "outputs": [
        {
          "name": "",
          "type": "bool"
        }
      ],
      "payable": false,
      "stateMutability": "view",
      "type": "function"
    },
    {
      "constant": true,
      "inputs": [],
      "name": "buyer",
      "outputs": [
        {
          "name": "",
          "type": "address"
        }
      ],
      "payable": false,
      "stateMutability": "view",
      "type": "function"
    },
    {
      "constant": true,
      "inputs": [],
      "name": "description",
      "outputs": [
        {
          "name": "",
          "type": "string"
        }
      ],
      "payable": false,
      "stateMutability": "view",
      "type": "function"
    },
    {
      "constant": true,
      "inputs": [],
      "name": "owner",
      "outputs": [
        {
          "name": "",
          "type": "address"
        }
      ],
      "payable": false,
      "stateMutability": "view",
      "type": "function"
    },
    {
      "constant": false,
      "inputs": [
        {
          "name": "_buyer",
          "type": "address"
        },
        {
          "name": "_salePrice",
          "type": "uint256"
        }
      ],
      "name": "listForSale",
      "outputs": [],
      "payable": false,
      "stateMutability": "nonpayable",
      "type": "function"
    },
    {
      "constant": false,
      "inputs": [],
      "name": "withdrawHoldings",
      "outputs": [],
      "payable": false,
      "stateMutability": "nonpayable",
      "type": "function"
    },
    {
      "constant": true,
      "inputs": [],
      "name": "holdings",
      "outputs": [
        {
          "name": "",
          "type": "uint256"
        }
      ],
      "payable": false,
      "stateMutability": "view",
      "type": "function"
    },
    {
      "constant": false,
      "inputs": [
        {
          "name": "newOwner",
          "type": "address"
        }
      ],
      "name": "transferOwnership",
      "outputs": [],
      "payable": false,
      "stateMutability": "nonpayable",
      "type": "function"
    },
    {
      "constant": true,
      "inputs": [],
      "name": "salePrice",
      "outputs": [
        {
          "name": "",
          "type": "uint256"
        }
      ],
      "payable": false,
      "stateMutability": "view",
      "type": "function"
    },
    {
      "inputs": [
        {
          "name": "_description",
          "type": "string"
        }
      ],
      "payable": false,
      "stateMutability": "nonpayable",
      "type": "constructor"
    },
    {
      "payable": true,
      "stateMutability": "payable",
      "type": "fallback"
    },
    {
      "anonymous": false,
      "inputs": [
        {
          "indexed": true,
          "name": "funder",
          "type": "address"
        },
        {
          "indexed": true,
          "name": "amount",
          "type": "uint256"
        }
      ],
      "name": "Funded",
      "type": "event"
    },
    {
      "anonymous": false,
      "inputs": [
        {
          "indexed": true,
          "name": "owner",
          "type": "address"
        },
        {
          "indexed": true,
          "name": "amount",
          "type": "uint256"
        }
      ],
      "name": "Withdrawal",
      "type": "event"
    },
    {
      "anonymous": false,
      "inputs": [
        {
          "indexed": true,
          "name": "previousOwner",
          "type": "address"
        },
        {
          "indexed": true,
          "name": "newOwner",
          "type": "address"
        },
        {
          "indexed": true,
          "name": "price",
          "type": "uint256"
        }
      ],
      "name": "Sale",
      "type": "event"
    },
    {
      "anonymous": false,
      "inputs": [
        {
          "indexed": true,
          "name": "previousOwner",
          "type": "address"
        },
        {
          "indexed": true,
          "name": "newOwner",
          "type": "address"
        }
      ],
      "name": "OwnershipTransferred",
      "type": "event"
    }
  ],
  "bytecode": "0x60606040526000805460a060020a60ff0219169055341561001f57600080fd5b6040516108d03803806108d08339810160405280805160008054600160a060020a03191633600160a060020a03161790559190910190506005818051610069929160200190610070565b505061010b565b828054600181600116156101000203166002900490600052602060002090601f016020900481019282601f106100b157805160ff19168380011785556100de565b828001600101855582156100de579182015b828111156100de5782518255916020019190600101906100c3565b506100ea9291506100ee565b5090565b61010891905b808211156100ea57600081556001016100f4565b90565b6107b68061011a6000396000f3006060604052600436106100a35763ffffffff7c01000000000000000000000000000000000000000000000000000000006000350416634adf535181146100e45780634d76876c146100ee5780637150d8ae146101155780637284e416146101445780638da5cb5b146101ce57806396830abe146101e1578063bc28f84914610203578063e79bf13b14610216578063f2fde38b1461023b578063f51f96dd1461025a575b3433600160a060020a03167f5af8184bef8e4b45eb9f6ed7734d04da38ced226495548f46e0c8ff8d7d9a52460405160405180910390a36003805434019055005b6100ec61026d565b005b34156100f957600080fd5b61010161029c565b604051901515815260200160405180910390f35b341561012057600080fd5b6101286102a5565b604051600160a060020a03909116815260200160405180910390f35b341561014f57600080fd5b6101576102b4565b60405160208082528190810183818151815260200191508051906020019080838360005b8381101561019357808201518382015260200161017b565b50505050905090810190601f1680156101c05780820380516001836020036101000a031916815260200191505b509250505060405180910390f35b34156101d957600080fd5b610128610352565b34156101ec57600080fd5b6100ec600160a060020a0360043516602435610361565b341561020e57600080fd5b6100ec610397565b341561022157600080fd5b6102296103ca565b60405190815260200160405180910390f35b341561024657600080fd5b6100ec600160a060020a03600435166103d0565b341561026557600080fd5b610229610434565b60025433600160a060020a0390811691161461028857600080fd5b6004805460ff1916905561029a61043a565b565b60045460ff1681565b600254600160a060020a031681565b60058054600181600116156101000203166002900480601f01602080910402602001604051908101604052809291908181526020018280546001816001161561010002031660029004801561034a5780601f1061031f5761010080835404028352916020019161034a565b820191906000526020600020905b81548152906001019060200180831161032d57829003601f168201915b505050505081565b600054600160a060020a031681565b60005433600160a060020a0390811691161461037c57600080fd5b6004805460ff1916600117905561039382826105b3565b5050565b60005433600160a060020a039081169116146103b257600080fd5b60045460ff16156103c257600080fd5b61029a610601565b60035481565b60005433600160a060020a039081169116146103eb57600080fd5b6103f4816106ef565b60008054600160a060020a0333811691167f3f3483d0995db4c081e0101ef6753bef457833c20605cd871de61dcb48085a9a60405160405180910390a450565b60015481565b60025433600160a060020a0390811691161461045557600080fd5b60005460a060020a900460ff161561046c57600080fd5b6000805474ff0000000000000000000000000000000000000000191660a060020a17905533600160a060020a031615156104a557600080fd5b60015434146104b357600080fd5b600054600160a060020a03163480156108fc0290604051600060405180830381858888f1935050505015156104e757600080fd5b600154600054600160a060020a0333811691167f3f3483d0995db4c081e0101ef6753bef457833c20605cd871de61dcb48085a9a60405160405180910390a4600054600160a060020a0333811691167f8be0079c531659141344cd1fd0a4f28419497f9722a3daafe3b4186f6b6457e060405160405180910390a36000805460018290556002805473ffffffffffffffffffffffffffffffffffffffff199081169091551633600160a060020a03161774ff000000000000000000000000000000000000000019169055565b60005433600160a060020a039081169116146105ce57600080fd5b6002805473ffffffffffffffffffffffffffffffffffffffff1916600160a060020a039390931692909217909155600155565b60005433600160a060020a0390811691161461061c57600080fd5b60005460a060020a900460ff161561063357600080fd5b6000805474ff0000000000000000000000000000000000000000191660a060020a1790819055600354600160a060020a039091169080156108fc0290604051600060405180830381858888f19350505050151561068f57600080fd5b600354600054600160a060020a03167f7fcf532c15f0a6db0bd6d0e038bea71d30d808c7d98cb3bf7268a95bf5081b6560405160405180910390a360006003819055805474ff000000000000000000000000000000000000000019169055565b60005433600160a060020a0390811691161461070a57600080fd5b600160a060020a038116151561071f57600080fd5b600054600160a060020a0380831691167f8be0079c531659141344cd1fd0a4f28419497f9722a3daafe3b4186f6b6457e060405160405180910390a36000805473ffffffffffffffffffffffffffffffffffffffff1916600160a060020a03929092169190911790555600a165627a7a7230582027f7e71cd07bad5f2c2b4c46dd5ce662720539f4946d1fd590ab4fc5e325e2b60029",
  "source": "pragma solidity ^0.4.18;\n\n\nimport './Holdable.sol';\nimport './Listable.sol';\n\n\n/**\n* @title Backable vehicle\n* @dev A vehicle that lets you back and list\n*      (often tied to an off-chain source of value),\n*      and doesn't allow withdrawals when a listing occurs\n*      (to prevent owners from wuickly withdrawing before a sale)\n*/\ncontract BackableVehicle is Listable, Holdable {\n\n  // mutex for when a list, sale, or withdrawal happens\n  bool public holdingsLocked;\n  string public description;\n\n  /**\n  * @dev Throws if holdings are locked\n  */\n  modifier onlyWhenUnlocked() {\n    require(!holdingsLocked);\n    _;\n  }\n\n  /**\n  * @dev creates the holding with a description\n  * @param _description description of the piece\n  */\n  function BackableVehicle(string _description) Listable() Holdable() public {\n    description = _description;\n  }\n\n  /**\n  * @dev Lists the sale, and locks the holdings\n  * @param _buyer the only person allowed to purchase\n  * @param _salePrice the price at which the sale can occur\n  */\n  function listForSale(address _buyer, uint256 _salePrice) public onlyOwner {\n  \tholdingsLocked = true;\n  \tsuper.listForSale(_buyer, _salePrice);\n  }\n\n  /**\n  * @dev Allows the buyer to purchase the contract, clears the lock\n  */\n  function purchaseListing() public payable onlyBuyer {\n  \tholdingsLocked = false;\n    super.purchaseListing();\n  }\n\n  /**\n  * @dev Allows the owner to claim the holdings from the contract, but only if not locked\n  */\n  function withdrawHoldings() public onlyOwner onlyWhenUnlocked {\n    super.withdrawHoldings();\n  }\n\n}",
  "sourcePath": "/Users/ian/provenance/contracts/BackableVehicle.sol",
  "compiler": {
    "name": "solc",
    "version": "0.4.18+commit.9cf6e910.Emscripten.clang"
  },
  "schemaVersion": "1.0.1",
  "updatedAt": "2018-01-21T01:07:07.241Z"
}