{
  "contractName": "SplitPurchaser",
  "abi": [
    {
      "constant": true,
      "inputs": [],
      "name": "totalSupply",
      "outputs": [
        {
          "name": "",
          "type": "uint256"
        }
      ],
      "payable": false,
      "stateMutability": "view",
      "type": "function"
    },
    {
      "constant": false,
      "inputs": [],
      "name": "claim",
      "outputs": [],
      "payable": false,
      "stateMutability": "nonpayable",
      "type": "function"
    },
    {
      "constant": false,
      "inputs": [],
      "name": "purchaseVehicle",
      "outputs": [],
      "payable": true,
      "stateMutability": "payable",
      "type": "function"
    },
    {
      "constant": true,
      "inputs": [
        {
          "name": "_who",
          "type": "address"
        }
      ],
      "name": "balanceOf",
      "outputs": [
        {
          "name": "",
          "type": "uint256"
        }
      ],
      "payable": false,
      "stateMutability": "view",
      "type": "function"
    },
    {
      "constant": true,
      "inputs": [],
      "name": "owner",
      "outputs": [
        {
          "name": "",
          "type": "address"
        }
      ],
      "payable": false,
      "stateMutability": "view",
      "type": "function"
    },
    {
      "constant": true,
      "inputs": [
        {
          "name": "",
          "type": "address"
        }
      ],
      "name": "released",
      "outputs": [
        {
          "name": "",
          "type": "uint256"
        }
      ],
      "payable": false,
      "stateMutability": "view",
      "type": "function"
    },
    {
      "constant": false,
      "inputs": [
        {
          "name": "_buyer",
          "type": "address"
        },
        {
          "name": "_salePrice",
          "type": "uint256"
        }
      ],
      "name": "listVehicle",
      "outputs": [],
      "payable": false,
      "stateMutability": "nonpayable",
      "type": "function"
    },
    {
      "constant": false,
      "inputs": [
        {
          "name": "_to",
          "type": "address"
        },
        {
          "name": "_value",
          "type": "uint256"
        }
      ],
      "name": "transfer",
      "outputs": [
        {
          "name": "",
          "type": "bool"
        }
      ],
      "payable": false,
      "stateMutability": "nonpayable",
      "type": "function"
    },
    {
      "constant": true,
      "inputs": [
        {
          "name": "",
          "type": "address"
        }
      ],
      "name": "shares",
      "outputs": [
        {
          "name": "",
          "type": "uint256"
        }
      ],
      "payable": false,
      "stateMutability": "view",
      "type": "function"
    },
    {
      "constant": true,
      "inputs": [],
      "name": "totalReleased",
      "outputs": [
        {
          "name": "",
          "type": "uint256"
        }
      ],
      "payable": false,
      "stateMutability": "view",
      "type": "function"
    },
    {
      "constant": false,
      "inputs": [
        {
          "name": "newOwner",
          "type": "address"
        }
      ],
      "name": "transferOwnership",
      "outputs": [],
      "payable": false,
      "stateMutability": "nonpayable",
      "type": "function"
    },
    {
      "inputs": [
        {
          "name": "_ownerShares",
          "type": "uint256"
        },
        {
          "name": "_vehicleAddress",
          "type": "address"
        }
      ],
      "payable": false,
      "stateMutability": "nonpayable",
      "type": "constructor"
    },
    {
      "payable": true,
      "stateMutability": "payable",
      "type": "fallback"
    },
    {
      "anonymous": false,
      "inputs": [
        {
          "indexed": true,
          "name": "from",
          "type": "address"
        },
        {
          "indexed": true,
          "name": "to",
          "type": "address"
        },
        {
          "indexed": false,
          "name": "value",
          "type": "uint256"
        }
      ],
      "name": "Transfer",
      "type": "event"
    },
    {
      "anonymous": false,
      "inputs": [
        {
          "indexed": true,
          "name": "previousOwner",
          "type": "address"
        },
        {
          "indexed": true,
          "name": "newOwner",
          "type": "address"
        }
      ],
      "name": "OwnershipTransferred",
      "type": "event"
    }
  ],
  "bytecode": "0x60606040526000600555341561001457600080fd5b60405160408061074a833981016040528080519190602001805160008054600160a060020a03338116600160a060020a0319928316811784556002805492909516919092161790925560018590559081526003602052604090209290925550506106c7806100836000396000f3006060604052600436106100955763ffffffff60e060020a60003504166318160ddd81146100975780634e71d92d146100bc578063590e56d0146100cf57806370a08231146100d75780638da5cb5b146100f65780639852595c146101255780639e84f27c14610144578063a9059cbb14610166578063ce7c2ac21461019c578063e33b7de3146101bb578063f2fde38b146101ce575b005b34156100a257600080fd5b6100aa6101ed565b60405190815260200160405180910390f35b34156100c757600080fd5b6100956101f3565b610095610349565b34156100e257600080fd5b6100aa600160a060020a03600435166103ba565b341561010157600080fd5b6101096103d5565b604051600160a060020a03909116815260200160405180910390f35b341561013057600080fd5b6100aa600160a060020a03600435166103e4565b341561014f57600080fd5b610095600160a060020a03600435166024356103f6565b341561017157600080fd5b610188600160a060020a036004351660243561047f565b604051901515815260200160405180910390f35b34156101a757600080fd5b6100aa600160a060020a036004351661057a565b34156101c657600080fd5b6100aa61058c565b34156101d957600080fd5b610095600160a060020a0360043516610592565b60015481565b33600160a060020a038116600090815260036020526040812054819081901161021b57600080fd5b60055461023990600160a060020a033016319063ffffffff61062d16565b600160a060020a038416600090815260046020908152604080832054600154600390935292205492945061029592610289919061027d90879063ffffffff61064716565b9063ffffffff61067216565b9063ffffffff61068916565b90508015156102a357600080fd5b600160a060020a03301631819010156102bb57600080fd5b600160a060020a0383166000908152600460205260409020546102e4908263ffffffff61062d16565b600160a060020a038416600090815260046020526040902055600554610310908263ffffffff61062d16565b600555600160a060020a03831681156108fc0282604051600060405180830381858888f19350505050151561034457600080fd5b505050565b60005433600160a060020a0390811691161461036457600080fd5b600254600160a060020a0316634adf5351346040518263ffffffff1660e060020a0281526004016000604051808303818588803b15156103a357600080fd5b6125ee5a03f115156103b457600080fd5b50505050565b600160a060020a031660009081526003602052604090205490565b600054600160a060020a031681565b60046020526000908152604090205481565b60005433600160a060020a0390811691161461041157600080fd5b600254600160a060020a03166396830abe838360405160e060020a63ffffffff8516028152600160a060020a0390921660048301526024820152604401600060405180830381600087803b151561046757600080fd5b6102c65a03f1151561047857600080fd5b5050505050565b6000600160a060020a038316151561049657600080fd5b600160a060020a0333166000908152600360205260409020548211156104bb57600080fd5b600160a060020a0333166000908152600360205260409020546104e4908363ffffffff61068916565b600160a060020a033381166000908152600360205260408082209390935590851681522054610519908363ffffffff61062d16565b600160a060020a0380851660008181526003602052604090819020939093559133909116907fddf252ad1be2c89b69c2b068fc378daa952ba7f163c4a11628f55a4df523b3ef9085905190815260200160405180910390a350600192915050565b60036020526000908152604090205481565b60055481565b60005433600160a060020a039081169116146105ad57600080fd5b600160a060020a03811615156105c257600080fd5b600054600160a060020a0380831691167f8be0079c531659141344cd1fd0a4f28419497f9722a3daafe3b4186f6b6457e060405160405180910390a36000805473ffffffffffffffffffffffffffffffffffffffff1916600160a060020a0392909216919091179055565b60008282018381101561063c57fe5b8091505b5092915050565b60008083151561065a5760009150610640565b5082820282848281151561066a57fe5b041461063c57fe5b600080828481151561068057fe5b04949350505050565b60008282111561069557fe5b509003905600a165627a7a723058209004345f09ba793f24893550a8106a3790239687db04fb80ebc9fa837038fb750029",
  "source": "pragma solidity ^0.4.18;\n\n\nimport 'zeppelin-solidity/contracts/token/ERC20Basic.sol';\nimport 'zeppelin-solidity/contracts/math/SafeMath.sol';\nimport './BackableVehicle.sol';\n\n\n/**\n* @title Split purchaser\n* @dev Contract that purchases a Backable vehicle and splits sale payments\n*      Modification of SplitPayment\n*/\ncontract SplitPurchaser is Ownable, ERC20Basic {\n\n  // BackableVehicle to be purchased\n  BackableVehicle backableVehicle;\n\n  using SafeMath for uint256;\n\n  mapping(address => uint256) public shares;\n  mapping(address => uint256) public released;\n  uint256 public totalReleased = 0;\n\n  /**\n  * @dev Creates the payment splitter, with creator as sole owner\n  * @param _ownerShares initial token pool\n  * @param _vehicleAddress BackableVehicle this payment will be purchasing\n  */\n  function SplitPurchaser(uint256 _ownerShares, address _vehicleAddress)\n      Ownable()\n      public {\n    backableVehicle = BackableVehicle(_vehicleAddress);\n    totalSupply = _ownerShares;\n    shares[msg.sender] = _ownerShares;\n  }\n\n  /**\n  * @dev transfer tokens from one address to another\n  * @param _to The address to transfer to.\n  * @param _value The amount to be transferred.\n  */\n  function transfer(address _to, uint256 _value) public returns (bool) {\n    require(_to != address(0));\n    require(_value <= shares[msg.sender]);\n\n    // SafeMath.sub will throw if there is not enough balance.\n    shares[msg.sender] = shares[msg.sender].sub(_value);\n    shares[_to] = shares[_to].add(_value);\n    Transfer(msg.sender, _to, _value);\n    return true;\n  }\n\n  /**\n  * @dev Purchase the vehicle\n  */\n  function purchaseVehicle() public payable onlyOwner {\n    backableVehicle.purchaseListing.value(msg.value)();\n  }\n\n  /**\n  * @dev List the vehicle\n  */\n  function listVehicle(address _buyer, uint256 _salePrice) public onlyOwner {\n    backableVehicle.listForSale(_buyer, _salePrice);\n  }\n\n  /**\n  * @dev get the balance of an address\n  */\n  function balanceOf(address _who) public view returns (uint256) {\n    return shares[_who];\n  }\n\n  /**\n   * @dev Claim your share of the balance.\n   */\n  function claim() public {\n    address payee = msg.sender;\n\n    require(shares[payee] > 0);\n\n    uint256 totalReceived = this.balance.add(totalReleased);\n    uint256 payment = totalReceived.mul(shares[payee]).div(totalSupply).sub(released[payee]);\n\n    require(payment != 0);\n    require(this.balance >= payment);\n\n    released[payee] = released[payee].add(payment);\n    totalReleased = totalReleased.add(payment);\n\n    payee.transfer(payment);\n  }\n\n  /**\n   * @dev payable fallback\n   */\n  function () public payable {}\n\n}",
  "sourcePath": "/Users/ian/provenance/contracts/SplitPurchaser.sol",
  "compiler": {
    "name": "solc",
    "version": "0.4.18+commit.9cf6e910.Emscripten.clang"
  },
  "schemaVersion": "1.0.1",
  "updatedAt": "2018-01-21T01:07:07.243Z"
}