{
  "contractName": "BackableVehicle",
  "abi": [
    {
      "constant": false,
      "inputs": [],
      "name": "purchaseListing",
      "outputs": [],
      "payable": true,
      "stateMutability": "payable",
      "type": "function"
    },
    {
      "constant": true,
      "inputs": [],
      "name": "holdingsLocked",
      "outputs": [
        {
          "name": "",
          "type": "bool"
        }
      ],
      "payable": false,
      "stateMutability": "view",
      "type": "function"
    },
    {
      "constant": true,
      "inputs": [],
      "name": "buyer",
      "outputs": [
        {
          "name": "",
          "type": "address"
        }
      ],
      "payable": false,
      "stateMutability": "view",
      "type": "function"
    },
    {
      "constant": true,
      "inputs": [],
      "name": "owner",
      "outputs": [
        {
          "name": "",
          "type": "address"
        }
      ],
      "payable": false,
      "stateMutability": "view",
      "type": "function"
    },
    {
      "constant": false,
      "inputs": [
        {
          "name": "_buyer",
          "type": "address"
        },
        {
          "name": "_salePrice",
          "type": "uint256"
        }
      ],
      "name": "listForSale",
      "outputs": [],
      "payable": false,
      "stateMutability": "nonpayable",
      "type": "function"
    },
    {
      "constant": false,
      "inputs": [],
      "name": "withdrawHoldings",
      "outputs": [],
      "payable": false,
      "stateMutability": "nonpayable",
      "type": "function"
    },
    {
      "constant": true,
      "inputs": [],
      "name": "holdings",
      "outputs": [
        {
          "name": "",
          "type": "uint256"
        }
      ],
      "payable": false,
      "stateMutability": "view",
      "type": "function"
    },
    {
      "constant": false,
      "inputs": [
        {
          "name": "newOwner",
          "type": "address"
        }
      ],
      "name": "transferOwnership",
      "outputs": [],
      "payable": false,
      "stateMutability": "nonpayable",
      "type": "function"
    },
    {
      "constant": true,
      "inputs": [],
      "name": "salePrice",
      "outputs": [
        {
          "name": "",
          "type": "uint256"
        }
      ],
      "payable": false,
      "stateMutability": "view",
      "type": "function"
    },
    {
      "payable": true,
      "stateMutability": "payable",
      "type": "fallback"
    },
    {
      "anonymous": false,
      "inputs": [
        {
          "indexed": true,
          "name": "funder",
          "type": "address"
        },
        {
          "indexed": true,
          "name": "amount",
          "type": "uint256"
        }
      ],
      "name": "Funded",
      "type": "event"
    },
    {
      "anonymous": false,
      "inputs": [
        {
          "indexed": true,
          "name": "owner",
          "type": "address"
        },
        {
          "indexed": true,
          "name": "amount",
          "type": "uint256"
        }
      ],
      "name": "Withdrawal",
      "type": "event"
    },
    {
      "anonymous": false,
      "inputs": [
        {
          "indexed": true,
          "name": "previousOwner",
          "type": "address"
        },
        {
          "indexed": true,
          "name": "newOwner",
          "type": "address"
        },
        {
          "indexed": true,
          "name": "price",
          "type": "uint256"
        }
      ],
      "name": "Sale",
      "type": "event"
    },
    {
      "anonymous": false,
      "inputs": [
        {
          "indexed": true,
          "name": "previousOwner",
          "type": "address"
        },
        {
          "indexed": true,
          "name": "newOwner",
          "type": "address"
        }
      ],
      "name": "OwnershipTransferred",
      "type": "event"
    }
  ],
  "bytecode": "0x606060405260008060146101000a81548160ff021916908315150217905550336000806101000a81548173ffffffffffffffffffffffffffffffffffffffff021916908373ffffffffffffffffffffffffffffffffffffffff160217905550610caf8061006d6000396000f300606060405260043610610099576000357c0100000000000000000000000000000000000000000000000000000000900463ffffffff1680634adf5351146100ef5780634d76876c146100f95780637150d8ae146101265780638da5cb5b1461017b57806396830abe146101d0578063bc28f84914610212578063e79bf13b14610227578063f2fde38b14610250578063f51f96dd14610289575b343373ffffffffffffffffffffffffffffffffffffffff167f7fcf532c15f0a6db0bd6d0e038bea71d30d808c7d98cb3bf7268a95bf5081b6560405160405180910390a334600360008282540192505081905550005b6100f76102b2565b005b341561010457600080fd5b61010c610384565b604051808215151515815260200191505060405180910390f35b341561013157600080fd5b610139610397565b604051808273ffffffffffffffffffffffffffffffffffffffff1673ffffffffffffffffffffffffffffffffffffffff16815260200191505060405180910390f35b341561018657600080fd5b61018e6103bd565b604051808273ffffffffffffffffffffffffffffffffffffffff1673ffffffffffffffffffffffffffffffffffffffff16815260200191505060405180910390f35b34156101db57600080fd5b610210600480803573ffffffffffffffffffffffffffffffffffffffff169060200190919080359060200190919050506103e2565b005b341561021d57600080fd5b610225610466565b005b341561023257600080fd5b61023a610538565b6040518082815260200191505060405180910390f35b341561025b57600080fd5b610287600480803573ffffffffffffffffffffffffffffffffffffffff1690602001909190505061053e565b005b341561029457600080fd5b61029c610622565b6040518082815260200191505060405180910390f35b600260009054906101000a900473ffffffffffffffffffffffffffffffffffffffff1673ffffffffffffffffffffffffffffffffffffffff163373ffffffffffffffffffffffffffffffffffffffff1614151561030e57600080fd5b600060149054906101000a900460ff1615151561032a57600080fd5b6001600060146101000a81548160ff0219169083151502179055506000600460006101000a81548160ff021916908315150217905550610368610628565b60008060146101000a81548160ff021916908315150217905550565b600460009054906101000a900460ff1681565b600260009054906101000a900473ffffffffffffffffffffffffffffffffffffffff1681565b6000809054906101000a900473ffffffffffffffffffffffffffffffffffffffff1681565b6000809054906101000a900473ffffffffffffffffffffffffffffffffffffffff1673ffffffffffffffffffffffffffffffffffffffff163373ffffffffffffffffffffffffffffffffffffffff1614151561043d57600080fd5b6001600460006101000a81548160ff0219169083151502179055506104628282610907565b5050565b6000809054906101000a900473ffffffffffffffffffffffffffffffffffffffff1673ffffffffffffffffffffffffffffffffffffffff163373ffffffffffffffffffffffffffffffffffffffff161415156104c157600080fd5b600060149054906101000a900460ff161515156104dd57600080fd5b6001600060146101000a81548160ff021916908315150217905550600460009054906101000a900460ff1615151561051457600080fd5b61051c6109ae565b60008060146101000a81548160ff021916908315150217905550565b60035481565b6000809054906101000a900473ffffffffffffffffffffffffffffffffffffffff1673ffffffffffffffffffffffffffffffffffffffff163373ffffffffffffffffffffffffffffffffffffffff1614151561059957600080fd5b6105a281610b2e565b60003373ffffffffffffffffffffffffffffffffffffffff166000809054906101000a900473ffffffffffffffffffffffffffffffffffffffff1673ffffffffffffffffffffffffffffffffffffffff167f3f3483d0995db4c081e0101ef6753bef457833c20605cd871de61dcb48085a9a60405160405180910390a450565b60015481565b600260009054906101000a900473ffffffffffffffffffffffffffffffffffffffff1673ffffffffffffffffffffffffffffffffffffffff163373ffffffffffffffffffffffffffffffffffffffff1614151561068457600080fd5b600060149054906101000a900460ff161515156106a057600080fd5b6001600060146101000a81548160ff021916908315150217905550600073ffffffffffffffffffffffffffffffffffffffff163373ffffffffffffffffffffffffffffffffffffffff16141515156106f757600080fd5b6001543414151561070757600080fd5b6000809054906101000a900473ffffffffffffffffffffffffffffffffffffffff1673ffffffffffffffffffffffffffffffffffffffff166108fc349081150290604051600060405180830381858888f19350505050151561076857600080fd5b6001543373ffffffffffffffffffffffffffffffffffffffff166000809054906101000a900473ffffffffffffffffffffffffffffffffffffffff1673ffffffffffffffffffffffffffffffffffffffff167f3f3483d0995db4c081e0101ef6753bef457833c20605cd871de61dcb48085a9a60405160405180910390a43373ffffffffffffffffffffffffffffffffffffffff166000809054906101000a900473ffffffffffffffffffffffffffffffffffffffff1673ffffffffffffffffffffffffffffffffffffffff167f8be0079c531659141344cd1fd0a4f28419497f9722a3daafe3b4186f6b6457e060405160405180910390a3336000806101000a81548173ffffffffffffffffffffffffffffffffffffffff021916908373ffffffffffffffffffffffffffffffffffffffff16021790555060006001819055506000600260006101000a81548173ffffffffffffffffffffffffffffffffffffffff021916908373ffffffffffffffffffffffffffffffffffffffff16021790555060008060146101000a81548160ff021916908315150217905550565b6000809054906101000a900473ffffffffffffffffffffffffffffffffffffffff1673ffffffffffffffffffffffffffffffffffffffff163373ffffffffffffffffffffffffffffffffffffffff1614151561096257600080fd5b81600260006101000a81548173ffffffffffffffffffffffffffffffffffffffff021916908373ffffffffffffffffffffffffffffffffffffffff160217905550806001819055505050565b6000809054906101000a900473ffffffffffffffffffffffffffffffffffffffff1673ffffffffffffffffffffffffffffffffffffffff163373ffffffffffffffffffffffffffffffffffffffff16141515610a0957600080fd5b600060149054906101000a900460ff16151515610a2557600080fd5b6001600060146101000a81548160ff0219169083151502179055506000809054906101000a900473ffffffffffffffffffffffffffffffffffffffff1673ffffffffffffffffffffffffffffffffffffffff166108fc6003549081150290604051600060405180830381858888f193505050501515610aa357600080fd5b6003546000809054906101000a900473ffffffffffffffffffffffffffffffffffffffff1673ffffffffffffffffffffffffffffffffffffffff167f7fcf532c15f0a6db0bd6d0e038bea71d30d808c7d98cb3bf7268a95bf5081b6560405160405180910390a3600060038190555060008060146101000a81548160ff021916908315150217905550565b6000809054906101000a900473ffffffffffffffffffffffffffffffffffffffff1673ffffffffffffffffffffffffffffffffffffffff163373ffffffffffffffffffffffffffffffffffffffff16141515610b8957600080fd5b600073ffffffffffffffffffffffffffffffffffffffff168173ffffffffffffffffffffffffffffffffffffffff1614151515610bc557600080fd5b8073ffffffffffffffffffffffffffffffffffffffff166000809054906101000a900473ffffffffffffffffffffffffffffffffffffffff1673ffffffffffffffffffffffffffffffffffffffff167f8be0079c531659141344cd1fd0a4f28419497f9722a3daafe3b4186f6b6457e060405160405180910390a3806000806101000a81548173ffffffffffffffffffffffffffffffffffffffff021916908373ffffffffffffffffffffffffffffffffffffffff160217905550505600a165627a7a72305820dc280df92ca77eeee90545283b126b9f2b7ded8486f015b8687c46186c09b6cb0029",
  "source": "pragma solidity ^0.4.18;\n\n\nimport './Holder.sol';\nimport './Listable.sol';\n\n\n/**\n* @title Backable vehicle\n* @dev A vehicle that lets you back and list\n*      (often tied to an off-chain source of value),\n*      and doesn't allow withdrawals when a listing occurs\n*      (to prevent owners from wuickly withdrawing before a sale)\n*/\ncontract BackableVehicle is Listable, Holder {\n\n  // mutex for when a list, sale, or withdrawal happens\n  bool public holdingsLocked;\n\n  /**\n  * @dev Throws if holdings are locked\n  */\n  modifier onlyWhenUnlocked() {\n    require(!holdingsLocked);\n    _;\n  }\n\n  /**\n  * @dev Lists the sale, and locks the holdings\n  * @param _buyer the only person allowed to purchase\n  * @param _salePrice the price at which the sale can occur\n  */\n  function listForSale(address _buyer, uint256 _salePrice) public onlyOwner {\n  \tholdingsLocked = true;\n  \tsuper.listForSale(_buyer, _salePrice);\n  }\n\n  /**\n  * @dev Allows the buyer to purchase the contract, clears the lock\n  */\n  function purchaseListing() public payable onlyBuyer nonReentrant {\n  \tholdingsLocked = false;\n    super.purchaseListing();\n  }\n\n  /**\n  * @dev Allows the owner to claim the holdings from the contract, but only if not locked\n  */\n  function withdrawHoldings() public onlyOwner nonReentrant onlyWhenUnlocked {\n    super.withdrawHoldings();\n  }\n\n}",
  "sourcePath": "/Users/ian/provenance/contracts/BackableVehicle.sol",
  "compiler": {
    "name": "solc",
    "version": "0.4.18+commit.9cf6e910.Emscripten.clang"
  },
  "schemaVersion": "1.0.1",
  "updatedAt": "2018-01-12T19:50:39.940Z"
}