{
  "contractName": "BackableVehicle",
  "abi": [
    {
      "constant": false,
      "inputs": [],
      "name": "purchaseListing",
      "outputs": [],
      "payable": true,
      "stateMutability": "payable",
      "type": "function"
    },
    {
      "constant": true,
      "inputs": [],
      "name": "holdingsLocked",
      "outputs": [
        {
          "name": "",
          "type": "bool"
        }
      ],
      "payable": false,
      "stateMutability": "view",
      "type": "function"
    },
    {
      "constant": true,
      "inputs": [],
      "name": "buyer",
      "outputs": [
        {
          "name": "",
          "type": "address"
        }
      ],
      "payable": false,
      "stateMutability": "view",
      "type": "function"
    },
    {
      "constant": true,
      "inputs": [],
      "name": "description",
      "outputs": [
        {
          "name": "",
          "type": "string"
        }
      ],
      "payable": false,
      "stateMutability": "view",
      "type": "function"
    },
    {
      "constant": true,
      "inputs": [],
      "name": "owner",
      "outputs": [
        {
          "name": "",
          "type": "address"
        }
      ],
      "payable": false,
      "stateMutability": "view",
      "type": "function"
    },
    {
      "constant": false,
      "inputs": [
        {
          "name": "_buyer",
          "type": "address"
        },
        {
          "name": "_salePrice",
          "type": "uint256"
        }
      ],
      "name": "listForSale",
      "outputs": [],
      "payable": false,
      "stateMutability": "nonpayable",
      "type": "function"
    },
    {
      "constant": true,
      "inputs": [],
      "name": "getPrice",
      "outputs": [
        {
          "name": "",
          "type": "uint256"
        }
      ],
      "payable": false,
      "stateMutability": "view",
      "type": "function"
    },
    {
      "constant": false,
      "inputs": [],
      "name": "withdrawHoldings",
      "outputs": [],
      "payable": false,
      "stateMutability": "nonpayable",
      "type": "function"
    },
    {
      "constant": true,
      "inputs": [],
      "name": "holdings",
      "outputs": [
        {
          "name": "",
          "type": "uint256"
        }
      ],
      "payable": false,
      "stateMutability": "view",
      "type": "function"
    },
    {
      "constant": false,
      "inputs": [
        {
          "name": "newOwner",
          "type": "address"
        }
      ],
      "name": "transferOwnership",
      "outputs": [],
      "payable": false,
      "stateMutability": "nonpayable",
      "type": "function"
    },
    {
      "constant": true,
      "inputs": [],
      "name": "salePrice",
      "outputs": [
        {
          "name": "",
          "type": "uint256"
        }
      ],
      "payable": false,
      "stateMutability": "view",
      "type": "function"
    },
    {
      "inputs": [
        {
          "name": "_description",
          "type": "string"
        }
      ],
      "payable": false,
      "stateMutability": "nonpayable",
      "type": "constructor"
    },
    {
      "payable": true,
      "stateMutability": "payable",
      "type": "fallback"
    },
    {
      "anonymous": false,
      "inputs": [
        {
          "indexed": true,
          "name": "funder",
          "type": "address"
        },
        {
          "indexed": true,
          "name": "amount",
          "type": "uint256"
        }
      ],
      "name": "Funded",
      "type": "event"
    },
    {
      "anonymous": false,
      "inputs": [
        {
          "indexed": true,
          "name": "owner",
          "type": "address"
        },
        {
          "indexed": true,
          "name": "amount",
          "type": "uint256"
        }
      ],
      "name": "Withdrawal",
      "type": "event"
    },
    {
      "anonymous": false,
      "inputs": [
        {
          "indexed": true,
          "name": "previousOwner",
          "type": "address"
        },
        {
          "indexed": true,
          "name": "newOwner",
          "type": "address"
        },
        {
          "indexed": true,
          "name": "price",
          "type": "uint256"
        }
      ],
      "name": "Sale",
      "type": "event"
    },
    {
      "anonymous": false,
      "inputs": [
        {
          "indexed": true,
          "name": "previousOwner",
          "type": "address"
        },
        {
          "indexed": true,
          "name": "newOwner",
          "type": "address"
        }
      ],
      "name": "OwnershipTransferred",
      "type": "event"
    }
  ],
  "bytecode": "0x60606040526000805460a060020a60ff0219169055341561001f57600080fd5b6040516108f43803806108f48339810160405280805160008054600160a060020a03191633600160a060020a03161790559190910190506005818051610069929160200190610070565b505061010b565b828054600181600116156101000203166002900490600052602060002090601f016020900481019282601f106100b157805160ff19168380011785556100de565b828001600101855582156100de579182015b828111156100de5782518255916020019190600101906100c3565b506100ea9291506100ee565b5090565b61010891905b808211156100ea57600081556001016100f4565b90565b6107da8061011a6000396000f3006060604052600436106100ae5763ffffffff7c01000000000000000000000000000000000000000000000000000000006000350416634adf535181146100ef5780634d76876c146100f95780637150d8ae146101205780637284e4161461014f5780638da5cb5b146101d957806396830abe146101ec57806398d5fdca1461020e578063bc28f84914610233578063e79bf13b14610246578063f2fde38b14610259578063f51f96dd14610278575b3433600160a060020a03167f5af8184bef8e4b45eb9f6ed7734d04da38ced226495548f46e0c8ff8d7d9a52460405160405180910390a36003805434019055005b6100f761028b565b005b341561010457600080fd5b61010c6102ba565b604051901515815260200160405180910390f35b341561012b57600080fd5b6101336102c3565b604051600160a060020a03909116815260200160405180910390f35b341561015a57600080fd5b6101626102d2565b60405160208082528190810183818151815260200191508051906020019080838360005b8381101561019e578082015183820152602001610186565b50505050905090810190601f1680156101cb5780820380516001836020036101000a031916815260200191505b509250505060405180910390f35b34156101e457600080fd5b610133610370565b34156101f757600080fd5b6100f7600160a060020a036004351660243561037f565b341561021957600080fd5b6102216103b5565b60405190815260200160405180910390f35b341561023e57600080fd5b6100f76103bb565b341561025157600080fd5b6102216103ee565b341561026457600080fd5b6100f7600160a060020a03600435166103f4565b341561028357600080fd5b610221610458565b60025433600160a060020a039081169116146102a657600080fd5b6004805460ff191690556102b861045e565b565b60045460ff1681565b600254600160a060020a031681565b60058054600181600116156101000203166002900480601f0160208091040260200160405190810160405280929190818152602001828054600181600116156101000203166002900480156103685780601f1061033d57610100808354040283529160200191610368565b820191906000526020600020905b81548152906001019060200180831161034b57829003601f168201915b505050505081565b600054600160a060020a031681565b60005433600160a060020a0390811691161461039a57600080fd5b6004805460ff191660011790556103b182826105d7565b5050565b60015490565b60005433600160a060020a039081169116146103d657600080fd5b60045460ff16156103e657600080fd5b6102b8610625565b60035481565b60005433600160a060020a0390811691161461040f57600080fd5b61041881610713565b60008054600160a060020a0333811691167f3f3483d0995db4c081e0101ef6753bef457833c20605cd871de61dcb48085a9a60405160405180910390a450565b60015481565b60025433600160a060020a0390811691161461047957600080fd5b60005460a060020a900460ff161561049057600080fd5b6000805474ff0000000000000000000000000000000000000000191660a060020a17905533600160a060020a031615156104c957600080fd5b60015434146104d757600080fd5b600054600160a060020a03163480156108fc0290604051600060405180830381858888f19350505050151561050b57600080fd5b600154600054600160a060020a0333811691167f3f3483d0995db4c081e0101ef6753bef457833c20605cd871de61dcb48085a9a60405160405180910390a4600054600160a060020a0333811691167f8be0079c531659141344cd1fd0a4f28419497f9722a3daafe3b4186f6b6457e060405160405180910390a36000805460018290556002805473ffffffffffffffffffffffffffffffffffffffff199081169091551633600160a060020a03161774ff000000000000000000000000000000000000000019169055565b60005433600160a060020a039081169116146105f257600080fd5b6002805473ffffffffffffffffffffffffffffffffffffffff1916600160a060020a039390931692909217909155600155565b60005433600160a060020a0390811691161461064057600080fd5b60005460a060020a900460ff161561065757600080fd5b6000805474ff0000000000000000000000000000000000000000191660a060020a1790819055600354600160a060020a039091169080156108fc0290604051600060405180830381858888f1935050505015156106b357600080fd5b600354600054600160a060020a03167f7fcf532c15f0a6db0bd6d0e038bea71d30d808c7d98cb3bf7268a95bf5081b6560405160405180910390a360006003819055805474ff000000000000000000000000000000000000000019169055565b60005433600160a060020a0390811691161461072e57600080fd5b600160a060020a038116151561074357600080fd5b600054600160a060020a0380831691167f8be0079c531659141344cd1fd0a4f28419497f9722a3daafe3b4186f6b6457e060405160405180910390a36000805473ffffffffffffffffffffffffffffffffffffffff1916600160a060020a03929092169190911790555600a165627a7a7230582029e1252ec5017b92c09174a388b3d74d8b1bcd03ae713d868dac33077c7241580029",
  "source": "pragma solidity ^0.4.18;\n\n\nimport './Holdable.sol';\nimport './Listable.sol';\n\n\n/**\n* @title Backable vehicle\n* @dev A vehicle that lets you back and list\n*      (often tied to an off-chain source of value),\n*      and doesn't allow withdrawals when a listing occurs\n*      (to prevent owners from wuickly withdrawing before a sale)\n*/\ncontract BackableVehicle is Listable, Holdable {\n\n  // mutex for when a list, sale, or withdrawal happens\n  bool public holdingsLocked;\n  string public description;\n\n  /**\n  * @dev Throws if holdings are locked\n  */\n  modifier onlyWhenUnlocked() {\n    require(!holdingsLocked);\n    _;\n  }\n\n  /**\n  * @dev creates the holding with a description\n  * @param _description description of the piece\n  */\n  function BackableVehicle(string _description) Listable() Holdable() public {\n    description = _description;\n  }\n\n  /**\n  * @dev Lists the sale, and locks the holdings\n  * @param _buyer the only person allowed to purchase\n  * @param _salePrice the price at which the sale can occur\n  */\n  function listForSale(address _buyer, uint256 _salePrice) public onlyOwner {\n  \tholdingsLocked = true;\n  \tsuper.listForSale(_buyer, _salePrice);\n  }\n\n  /**\n  * @dev Allows the buyer to purchase the contract, clears the lock\n  */\n  function purchaseListing() public payable onlyBuyer {\n  \tholdingsLocked = false;\n    super.purchaseListing();\n  }\n\n  /**\n  * @dev Allows the owner to claim the holdings from the contract, but only if not locked\n  */\n  function withdrawHoldings() public onlyOwner onlyWhenUnlocked {\n    super.withdrawHoldings();\n  }\n\n  /**\n  * @dev Get price of vehicle\n  */\n  function getPrice() public view returns (uint256) {\n    return salePrice;\n  }\n\n}",
  "sourcePath": "/Users/ian/provenance/contracts/BackableVehicle.sol",
  "compiler": {
    "name": "solc",
    "version": "0.4.18+commit.9cf6e910.Emscripten.clang"
  },
  "schemaVersion": "1.0.1",
  "updatedAt": "2018-02-06T18:38:02.158Z"
}