{
  "contractName": "Holdable",
  "abi": [
    {
      "constant": true,
      "inputs": [],
      "name": "owner",
      "outputs": [
        {
          "name": "",
          "type": "address"
        }
      ],
      "payable": false,
      "stateMutability": "view",
      "type": "function"
    },
    {
      "constant": false,
      "inputs": [],
      "name": "withdrawHoldings",
      "outputs": [],
      "payable": false,
      "stateMutability": "nonpayable",
      "type": "function"
    },
    {
      "constant": true,
      "inputs": [],
      "name": "holdings",
      "outputs": [
        {
          "name": "",
          "type": "uint256"
        }
      ],
      "payable": false,
      "stateMutability": "view",
      "type": "function"
    },
    {
      "constant": false,
      "inputs": [
        {
          "name": "newOwner",
          "type": "address"
        }
      ],
      "name": "transferOwnership",
      "outputs": [],
      "payable": false,
      "stateMutability": "nonpayable",
      "type": "function"
    },
    {
      "payable": true,
      "stateMutability": "payable",
      "type": "fallback"
    },
    {
      "anonymous": false,
      "inputs": [
        {
          "indexed": true,
          "name": "funder",
          "type": "address"
        },
        {
          "indexed": true,
          "name": "amount",
          "type": "uint256"
        }
      ],
      "name": "Funded",
      "type": "event"
    },
    {
      "anonymous": false,
      "inputs": [
        {
          "indexed": true,
          "name": "owner",
          "type": "address"
        },
        {
          "indexed": true,
          "name": "amount",
          "type": "uint256"
        }
      ],
      "name": "Withdrawal",
      "type": "event"
    },
    {
      "anonymous": false,
      "inputs": [
        {
          "indexed": true,
          "name": "previousOwner",
          "type": "address"
        },
        {
          "indexed": true,
          "name": "newOwner",
          "type": "address"
        }
      ],
      "name": "OwnershipTransferred",
      "type": "event"
    }
  ],
  "bytecode": "0x606060405260008054600160a060020a033316600160a860020a0319909116179055610316806100306000396000f3006060604052600436106100615763ffffffff7c01000000000000000000000000000000000000000000000000000000006000350416638da5cb5b81146100a2578063bc28f849146100d1578063e79bf13b146100e6578063f2fde38b1461010b575b3433600160a060020a03167f5af8184bef8e4b45eb9f6ed7734d04da38ced226495548f46e0c8ff8d7d9a52460405160405180910390a36001805434019055005b34156100ad57600080fd5b6100b561012a565b604051600160a060020a03909116815260200160405180910390f35b34156100dc57600080fd5b6100e4610139565b005b34156100f157600080fd5b6100f9610249565b60405190815260200160405180910390f35b341561011657600080fd5b6100e4600160a060020a036004351661024f565b600054600160a060020a031681565b60005433600160a060020a0390811691161461015457600080fd5b60005474010000000000000000000000000000000000000000900460ff161561017c57600080fd5b6000805474ff00000000000000000000000000000000000000001916740100000000000000000000000000000000000000001790819055600154600160a060020a039091169080156108fc0290604051600060405180830381858888f1935050505015156101e957600080fd5b600154600054600160a060020a03167f7fcf532c15f0a6db0bd6d0e038bea71d30d808c7d98cb3bf7268a95bf5081b6560405160405180910390a360006001819055805474ff000000000000000000000000000000000000000019169055565b60015481565b60005433600160a060020a0390811691161461026a57600080fd5b600160a060020a038116151561027f57600080fd5b600054600160a060020a0380831691167f8be0079c531659141344cd1fd0a4f28419497f9722a3daafe3b4186f6b6457e060405160405180910390a36000805473ffffffffffffffffffffffffffffffffffffffff1916600160a060020a03929092169190911790555600a165627a7a72305820d7de9c2edfac4546231686e73474c013bcf094c9354527fdc9843bb60d1a02f70029",
  "source": "pragma solidity ^0.4.18;\n\n\nimport 'zeppelin-solidity/contracts/ownership/Ownable.sol';\nimport 'zeppelin-solidity/contracts/ReentrancyGuard.sol';\n\n\n/**\n* @title Holdable\n* @dev extension of Ownable that can be hold ether\n*/\n\ncontract Holdable is Ownable, ReentrancyGuard {\n\n  // events that track funding and withdrawal\n  event Funded(address indexed funder, uint256 indexed amount);\n  event Withdrawal(address indexed owner, uint256 indexed amount);\n\n  // holds holdings given to this contract\n  uint256 public holdings;\n\n  /**\n  * @dev Allows the owner to claim the holdings from the contract.\n  *      Equivalent to melting it down if it were made of gold\n  */\n  function withdrawHoldings() public onlyOwner nonReentrant {\n    owner.transfer(holdings);\n    Withdrawal(owner, holdings);\n    holdings = 0;\n  }\n\n  /**\n  * @dev Anyone can back the contract\n  *      (a good way for patrons or fans to encourage people to buy contract)\n  */\n  function () public payable {\n    Funded(msg.sender, msg.value);\n    holdings += msg.value;\n  }\n\n}\n",
  "sourcePath": "/Users/ian/provenance/contracts/Holdable.sol",
  "compiler": {
    "name": "solc",
    "version": "0.4.18+commit.9cf6e910.Emscripten.clang"
  },
  "schemaVersion": "1.0.1",
  "updatedAt": "2018-01-21T19:44:17.388Z"
}