{
  "contractName": "Holder",
  "abi": [
    {
      "constant": true,
      "inputs": [],
      "name": "owner",
      "outputs": [
        {
          "name": "",
          "type": "address"
        }
      ],
      "payable": false,
      "stateMutability": "view",
      "type": "function"
    },
    {
      "constant": false,
      "inputs": [],
      "name": "withdrawHoldings",
      "outputs": [],
      "payable": false,
      "stateMutability": "nonpayable",
      "type": "function"
    },
    {
      "constant": true,
      "inputs": [],
      "name": "holdings",
      "outputs": [
        {
          "name": "",
          "type": "uint256"
        }
      ],
      "payable": false,
      "stateMutability": "view",
      "type": "function"
    },
    {
      "constant": false,
      "inputs": [
        {
          "name": "newOwner",
          "type": "address"
        }
      ],
      "name": "transferOwnership",
      "outputs": [],
      "payable": false,
      "stateMutability": "nonpayable",
      "type": "function"
    },
    {
      "payable": true,
      "stateMutability": "payable",
      "type": "fallback"
    },
    {
      "anonymous": false,
      "inputs": [
        {
          "indexed": true,
          "name": "funder",
          "type": "address"
        },
        {
          "indexed": true,
          "name": "amount",
          "type": "uint256"
        }
      ],
      "name": "Funded",
      "type": "event"
    },
    {
      "anonymous": false,
      "inputs": [
        {
          "indexed": true,
          "name": "owner",
          "type": "address"
        },
        {
          "indexed": true,
          "name": "amount",
          "type": "uint256"
        }
      ],
      "name": "Withdrawal",
      "type": "event"
    },
    {
      "anonymous": false,
      "inputs": [
        {
          "indexed": true,
          "name": "previousOwner",
          "type": "address"
        },
        {
          "indexed": true,
          "name": "newOwner",
          "type": "address"
        }
      ],
      "name": "OwnershipTransferred",
      "type": "event"
    }
  ],
  "bytecode": "0x606060405260008060146101000a81548160ff021916908315150217905550336000806101000a81548173ffffffffffffffffffffffffffffffffffffffff021916908373ffffffffffffffffffffffffffffffffffffffff1602179055506104b08061006d6000396000f300606060405260043610610062576000357c0100000000000000000000000000000000000000000000000000000000900463ffffffff1680638da5cb5b146100b8578063bc28f8491461010d578063e79bf13b14610122578063f2fde38b1461014b575b343373ffffffffffffffffffffffffffffffffffffffff167f7fcf532c15f0a6db0bd6d0e038bea71d30d808c7d98cb3bf7268a95bf5081b6560405160405180910390a334600160008282540192505081905550005b34156100c357600080fd5b6100cb610184565b604051808273ffffffffffffffffffffffffffffffffffffffff1673ffffffffffffffffffffffffffffffffffffffff16815260200191505060405180910390f35b341561011857600080fd5b6101206101a9565b005b341561012d57600080fd5b610135610329565b6040518082815260200191505060405180910390f35b341561015657600080fd5b610182600480803573ffffffffffffffffffffffffffffffffffffffff1690602001909190505061032f565b005b6000809054906101000a900473ffffffffffffffffffffffffffffffffffffffff1681565b6000809054906101000a900473ffffffffffffffffffffffffffffffffffffffff1673ffffffffffffffffffffffffffffffffffffffff163373ffffffffffffffffffffffffffffffffffffffff1614151561020457600080fd5b600060149054906101000a900460ff1615151561022057600080fd5b6001600060146101000a81548160ff0219169083151502179055506000809054906101000a900473ffffffffffffffffffffffffffffffffffffffff1673ffffffffffffffffffffffffffffffffffffffff166108fc6001549081150290604051600060405180830381858888f19350505050151561029e57600080fd5b6001546000809054906101000a900473ffffffffffffffffffffffffffffffffffffffff1673ffffffffffffffffffffffffffffffffffffffff167f7fcf532c15f0a6db0bd6d0e038bea71d30d808c7d98cb3bf7268a95bf5081b6560405160405180910390a3600060018190555060008060146101000a81548160ff021916908315150217905550565b60015481565b6000809054906101000a900473ffffffffffffffffffffffffffffffffffffffff1673ffffffffffffffffffffffffffffffffffffffff163373ffffffffffffffffffffffffffffffffffffffff1614151561038a57600080fd5b600073ffffffffffffffffffffffffffffffffffffffff168173ffffffffffffffffffffffffffffffffffffffff16141515156103c657600080fd5b8073ffffffffffffffffffffffffffffffffffffffff166000809054906101000a900473ffffffffffffffffffffffffffffffffffffffff1673ffffffffffffffffffffffffffffffffffffffff167f8be0079c531659141344cd1fd0a4f28419497f9722a3daafe3b4186f6b6457e060405160405180910390a3806000806101000a81548173ffffffffffffffffffffffffffffffffffffffff021916908373ffffffffffffffffffffffffffffffffffffffff160217905550505600a165627a7a72305820859303e256318ca100809f4f6de46b9c1c72e7dcb919ef8bf495c785c3f383050029",
  "source": "pragma solidity ^0.4.18;\n\n\nimport 'zeppelin-solidity/contracts/ownership/Ownable.sol';\nimport 'zeppelin-solidity/contracts/ReentrancyGuard.sol';\n\n\n/**\n* @title Holder\n* @dev extension of Ownable that can be hold ether\n*/\n\ncontract Holder is Ownable, ReentrancyGuard {\n\n  // events that track funding and withdrawal\n  event Funded(address indexed funder, uint256 indexed amount);\n  event Withdrawal(address indexed owner, uint256 indexed amount);\n\n  // holds holdings given to this contract\n  uint256 public holdings;\n\n  /**\n  * @dev Allows the owner to claim the holdings from the contract.\n  *      Equivalent to melting it down if it were made of gold\n  */\n  function withdrawHoldings() public onlyOwner nonReentrant {\n    owner.transfer(holdings);\n    Withdrawal(owner, holdings);\n    holdings = 0;\n  }\n\n  /**\n  * @dev Anyone can back the contract\n  *      (a good way for patrons or fans to encourage people to buy contract)\n  */\n  function () public payable {\n    Withdrawal(msg.sender, msg.value);\n    holdings += msg.value;\n  }\n\n}\n",
  "sourcePath": "/Users/ian/provenance/contracts/Holder.sol",
  "compiler": {
    "name": "solc",
    "version": "0.4.18+commit.9cf6e910.Emscripten.clang"
  },
  "schemaVersion": "1.0.1",
  "updatedAt": "2018-01-12T19:50:39.940Z"
}