{
  "contractName": "Listable",
  "abi": [
    {
      "constant": false,
      "inputs": [],
      "name": "purchaseListing",
      "outputs": [],
      "payable": true,
      "stateMutability": "payable",
      "type": "function"
    },
    {
      "constant": true,
      "inputs": [],
      "name": "buyer",
      "outputs": [
        {
          "name": "",
          "type": "address"
        }
      ],
      "payable": false,
      "stateMutability": "view",
      "type": "function"
    },
    {
      "constant": true,
      "inputs": [],
      "name": "owner",
      "outputs": [
        {
          "name": "",
          "type": "address"
        }
      ],
      "payable": false,
      "stateMutability": "view",
      "type": "function"
    },
    {
      "constant": false,
      "inputs": [
        {
          "name": "_buyer",
          "type": "address"
        },
        {
          "name": "_salePrice",
          "type": "uint256"
        }
      ],
      "name": "listForSale",
      "outputs": [],
      "payable": false,
      "stateMutability": "nonpayable",
      "type": "function"
    },
    {
      "constant": false,
      "inputs": [
        {
          "name": "newOwner",
          "type": "address"
        }
      ],
      "name": "transferOwnership",
      "outputs": [],
      "payable": false,
      "stateMutability": "nonpayable",
      "type": "function"
    },
    {
      "constant": true,
      "inputs": [],
      "name": "salePrice",
      "outputs": [
        {
          "name": "",
          "type": "uint256"
        }
      ],
      "payable": false,
      "stateMutability": "view",
      "type": "function"
    },
    {
      "anonymous": false,
      "inputs": [
        {
          "indexed": true,
          "name": "previousOwner",
          "type": "address"
        },
        {
          "indexed": true,
          "name": "newOwner",
          "type": "address"
        },
        {
          "indexed": true,
          "name": "price",
          "type": "uint256"
        }
      ],
      "name": "Sale",
      "type": "event"
    },
    {
      "anonymous": false,
      "inputs": [
        {
          "indexed": true,
          "name": "previousOwner",
          "type": "address"
        },
        {
          "indexed": true,
          "name": "newOwner",
          "type": "address"
        }
      ],
      "name": "OwnershipTransferred",
      "type": "event"
    }
  ],
  "bytecode": "0x606060405260008054600160a060020a033316600160a860020a0319909116179055610466806100306000396000f3006060604052600436106100775763ffffffff7c01000000000000000000000000000000000000000000000000000000006000350416634adf5351811461007c5780637150d8ae146100865780638da5cb5b146100b557806396830abe146100c8578063f2fde38b146100ea578063f51f96dd14610109575b600080fd5b61008461012e565b005b341561009157600080fd5b6100996102c9565b604051600160a060020a03909116815260200160405180910390f35b34156100c057600080fd5b6100996102d8565b34156100d357600080fd5b610084600160a060020a03600435166024356102e7565b34156100f557600080fd5b610084600160a060020a0360043516610335565b341561011457600080fd5b61011c610399565b60405190815260200160405180910390f35b60025433600160a060020a0390811691161461014957600080fd5b60005474010000000000000000000000000000000000000000900460ff161561017157600080fd5b6000805474ff000000000000000000000000000000000000000019167401000000000000000000000000000000000000000017905533600160a060020a031615156101bb57600080fd5b60015434146101c957600080fd5b600054600160a060020a03163480156108fc0290604051600060405180830381858888f1935050505015156101fd57600080fd5b600154600054600160a060020a0333811691167f3f3483d0995db4c081e0101ef6753bef457833c20605cd871de61dcb48085a9a60405160405180910390a4600054600160a060020a0333811691167f8be0079c531659141344cd1fd0a4f28419497f9722a3daafe3b4186f6b6457e060405160405180910390a36000805460018290556002805473ffffffffffffffffffffffffffffffffffffffff199081169091551633600160a060020a03161774ff000000000000000000000000000000000000000019169055565b600254600160a060020a031681565b600054600160a060020a031681565b60005433600160a060020a0390811691161461030257600080fd5b6002805473ffffffffffffffffffffffffffffffffffffffff1916600160a060020a039390931692909217909155600155565b60005433600160a060020a0390811691161461035057600080fd5b6103598161039f565b60008054600160a060020a0333811691167f3f3483d0995db4c081e0101ef6753bef457833c20605cd871de61dcb48085a9a60405160405180910390a450565b60015481565b60005433600160a060020a039081169116146103ba57600080fd5b600160a060020a03811615156103cf57600080fd5b600054600160a060020a0380831691167f8be0079c531659141344cd1fd0a4f28419497f9722a3daafe3b4186f6b6457e060405160405180910390a36000805473ffffffffffffffffffffffffffffffffffffffff1916600160a060020a03929092169190911790555600a165627a7a72305820797573171ae18c923f2101f4cf7e08f428b6e3a439e89764cea5a5debf8f083e0029",
  "source": "pragma solidity ^0.4.18;\n\n\nimport 'zeppelin-solidity/contracts/ownership/Ownable.sol';\nimport 'zeppelin-solidity/contracts/ReentrancyGuard.sol';\n\n\n/**\n* @title Listable\n* @dev extension of Ownable that is sellable via a simple list API.\n*/\ncontract Listable is Ownable, ReentrancyGuard {\n\n  // event that is emitted whenever a sale happens\n  event Sale(address indexed previousOwner, address indexed newOwner, uint256 indexed price);\n\n  /**\n  * @dev Throws if called by any account other than the buyer\n  */\n  modifier onlyBuyer() {\n    require(msg.sender == buyer);\n    _;\n  }\n\n  uint256 public salePrice;\n  address public buyer;\n\n  /**\n  * @dev Allows the owner to list the work for sale for a certain price to a certain seller\n  *      This agreement is to happen off chain.\n  * @param _buyer the only person allowed to purchase\n  * @param _salePrice the price at which the sale can occur\n  */\n  function listForSale(address _buyer, uint256 _salePrice) public onlyOwner {\n    buyer = _buyer;\n    salePrice = _salePrice;\n  }\n\n  /**\n  * @dev Allows the buyer to purchase the contract for the specified amount\n  *      NonRentrent to protect against anything seeking to \n  */\n  function purchaseListing() public payable onlyBuyer nonReentrant {\n    require(msg.sender != address(0));\n    require(msg.value == salePrice);\n    owner.transfer(msg.value);\n    Sale(owner, msg.sender, salePrice);\n    OwnershipTransferred(owner, msg.sender);\n    owner = msg.sender;\n    salePrice = 0;\n    buyer = address(0);\n  }\n\n  /**\n  * @dev Overload the default transferOwnership in order to emit a Sale event w/ 0 price\n  */\n  function transferOwnership(address newOwner) public onlyOwner {\n    super.transferOwnership(newOwner);\n    Sale(owner, msg.sender, 0);\n  }\n\n}\n",
  "sourcePath": "/Users/ian/provenance/contracts/Listable.sol",
  "compiler": {
    "name": "solc",
    "version": "0.4.18+commit.9cf6e910.Emscripten.clang"
  },
  "schemaVersion": "1.0.1",
  "updatedAt": "2018-02-06T18:35:24.419Z"
}