{
  "contractName": "Listable",
  "abi": [
    {
      "constant": false,
      "inputs": [],
      "name": "purchaseListing",
      "outputs": [],
      "payable": true,
      "stateMutability": "payable",
      "type": "function"
    },
    {
      "constant": true,
      "inputs": [],
      "name": "buyer",
      "outputs": [
        {
          "name": "",
          "type": "address"
        }
      ],
      "payable": false,
      "stateMutability": "view",
      "type": "function"
    },
    {
      "constant": true,
      "inputs": [],
      "name": "owner",
      "outputs": [
        {
          "name": "",
          "type": "address"
        }
      ],
      "payable": false,
      "stateMutability": "view",
      "type": "function"
    },
    {
      "constant": false,
      "inputs": [
        {
          "name": "_buyer",
          "type": "address"
        },
        {
          "name": "_salePrice",
          "type": "uint256"
        }
      ],
      "name": "listForSale",
      "outputs": [],
      "payable": false,
      "stateMutability": "nonpayable",
      "type": "function"
    },
    {
      "constant": false,
      "inputs": [
        {
          "name": "newOwner",
          "type": "address"
        }
      ],
      "name": "transferOwnership",
      "outputs": [],
      "payable": false,
      "stateMutability": "nonpayable",
      "type": "function"
    },
    {
      "constant": true,
      "inputs": [],
      "name": "salePrice",
      "outputs": [
        {
          "name": "",
          "type": "uint256"
        }
      ],
      "payable": false,
      "stateMutability": "view",
      "type": "function"
    },
    {
      "anonymous": false,
      "inputs": [
        {
          "indexed": true,
          "name": "previousOwner",
          "type": "address"
        },
        {
          "indexed": true,
          "name": "newOwner",
          "type": "address"
        },
        {
          "indexed": true,
          "name": "price",
          "type": "uint256"
        }
      ],
      "name": "Sale",
      "type": "event"
    },
    {
      "anonymous": false,
      "inputs": [
        {
          "indexed": true,
          "name": "previousOwner",
          "type": "address"
        },
        {
          "indexed": true,
          "name": "newOwner",
          "type": "address"
        }
      ],
      "name": "OwnershipTransferred",
      "type": "event"
    }
  ],
  "bytecode": "0x606060405260008060146101000a81548160ff021916908315150217905550336000806101000a81548173ffffffffffffffffffffffffffffffffffffffff021916908373ffffffffffffffffffffffffffffffffffffffff1602179055506108118061006d6000396000f300606060405260043610610078576000357c0100000000000000000000000000000000000000000000000000000000900463ffffffff1680634adf53511461007d5780637150d8ae146100875780638da5cb5b146100dc57806396830abe14610131578063f2fde38b14610173578063f51f96dd146101ac575b600080fd5b6100856101d5565b005b341561009257600080fd5b61009a6104b4565b604051808273ffffffffffffffffffffffffffffffffffffffff1673ffffffffffffffffffffffffffffffffffffffff16815260200191505060405180910390f35b34156100e757600080fd5b6100ef6104da565b604051808273ffffffffffffffffffffffffffffffffffffffff1673ffffffffffffffffffffffffffffffffffffffff16815260200191505060405180910390f35b341561013c57600080fd5b610171600480803573ffffffffffffffffffffffffffffffffffffffff169060200190919080359060200190919050506104ff565b005b341561017e57600080fd5b6101aa600480803573ffffffffffffffffffffffffffffffffffffffff169060200190919050506105a6565b005b34156101b757600080fd5b6101bf61068a565b6040518082815260200191505060405180910390f35b600260009054906101000a900473ffffffffffffffffffffffffffffffffffffffff1673ffffffffffffffffffffffffffffffffffffffff163373ffffffffffffffffffffffffffffffffffffffff1614151561023157600080fd5b600060149054906101000a900460ff1615151561024d57600080fd5b6001600060146101000a81548160ff021916908315150217905550600073ffffffffffffffffffffffffffffffffffffffff163373ffffffffffffffffffffffffffffffffffffffff16141515156102a457600080fd5b600154341415156102b457600080fd5b6000809054906101000a900473ffffffffffffffffffffffffffffffffffffffff1673ffffffffffffffffffffffffffffffffffffffff166108fc349081150290604051600060405180830381858888f19350505050151561031557600080fd5b6001543373ffffffffffffffffffffffffffffffffffffffff166000809054906101000a900473ffffffffffffffffffffffffffffffffffffffff1673ffffffffffffffffffffffffffffffffffffffff167f3f3483d0995db4c081e0101ef6753bef457833c20605cd871de61dcb48085a9a60405160405180910390a43373ffffffffffffffffffffffffffffffffffffffff166000809054906101000a900473ffffffffffffffffffffffffffffffffffffffff1673ffffffffffffffffffffffffffffffffffffffff167f8be0079c531659141344cd1fd0a4f28419497f9722a3daafe3b4186f6b6457e060405160405180910390a3336000806101000a81548173ffffffffffffffffffffffffffffffffffffffff021916908373ffffffffffffffffffffffffffffffffffffffff16021790555060006001819055506000600260006101000a81548173ffffffffffffffffffffffffffffffffffffffff021916908373ffffffffffffffffffffffffffffffffffffffff16021790555060008060146101000a81548160ff021916908315150217905550565b600260009054906101000a900473ffffffffffffffffffffffffffffffffffffffff1681565b6000809054906101000a900473ffffffffffffffffffffffffffffffffffffffff1681565b6000809054906101000a900473ffffffffffffffffffffffffffffffffffffffff1673ffffffffffffffffffffffffffffffffffffffff163373ffffffffffffffffffffffffffffffffffffffff1614151561055a57600080fd5b81600260006101000a81548173ffffffffffffffffffffffffffffffffffffffff021916908373ffffffffffffffffffffffffffffffffffffffff160217905550806001819055505050565b6000809054906101000a900473ffffffffffffffffffffffffffffffffffffffff1673ffffffffffffffffffffffffffffffffffffffff163373ffffffffffffffffffffffffffffffffffffffff1614151561060157600080fd5b61060a81610690565b60003373ffffffffffffffffffffffffffffffffffffffff166000809054906101000a900473ffffffffffffffffffffffffffffffffffffffff1673ffffffffffffffffffffffffffffffffffffffff167f3f3483d0995db4c081e0101ef6753bef457833c20605cd871de61dcb48085a9a60405160405180910390a450565b60015481565b6000809054906101000a900473ffffffffffffffffffffffffffffffffffffffff1673ffffffffffffffffffffffffffffffffffffffff163373ffffffffffffffffffffffffffffffffffffffff161415156106eb57600080fd5b600073ffffffffffffffffffffffffffffffffffffffff168173ffffffffffffffffffffffffffffffffffffffff161415151561072757600080fd5b8073ffffffffffffffffffffffffffffffffffffffff166000809054906101000a900473ffffffffffffffffffffffffffffffffffffffff1673ffffffffffffffffffffffffffffffffffffffff167f8be0079c531659141344cd1fd0a4f28419497f9722a3daafe3b4186f6b6457e060405160405180910390a3806000806101000a81548173ffffffffffffffffffffffffffffffffffffffff021916908373ffffffffffffffffffffffffffffffffffffffff160217905550505600a165627a7a72305820826d98e1f87078716bd3ff616d5e083736f6b84658e96ac5474c10674b5427a20029",
  "source": "pragma solidity ^0.4.18;\n\n\nimport 'zeppelin-solidity/contracts/ownership/Ownable.sol';\nimport 'zeppelin-solidity/contracts/ReentrancyGuard.sol';\n\n\n/**\n* @title Listable\n* @dev extension of Ownable that is sellable via a simple list API.\n*/\ncontract Listable is Ownable, ReentrancyGuard {\n\n  // event that is emitted whenever a sale happens\n  event Sale(address indexed previousOwner, address indexed newOwner, uint256 indexed price);\n\n  /**\n  * @dev Throws if called by any account other than the buyer\n  */\n  modifier onlyBuyer() {\n    require(msg.sender == buyer);\n    _;\n  }\n\n  uint256 public salePrice;\n  address public buyer;\n\n  /**\n  * @dev Allows the owner to list the work for sale for a certain price to a certain seller\n  *      This agreement is to happen off chain.\n  * @param _buyer the only person allowed to purchase\n  * @param _salePrice the price at which the sale can occur\n  */\n  function listForSale(address _buyer, uint256 _salePrice) public onlyOwner {\n    buyer = _buyer;\n    salePrice = _salePrice;\n  }\n\n  /**\n  * @dev Allows the buyer to purchase the contract for the specified amount\n  *      NonRentrent to protect against anything seeking to \n  */\n  function purchaseListing() public payable onlyBuyer nonReentrant {\n    require(msg.sender != address(0));\n    require(msg.value == salePrice);\n    owner.transfer(msg.value);\n    Sale(owner, msg.sender, salePrice);\n    OwnershipTransferred(owner, msg.sender);\n    owner = msg.sender;\n    salePrice = 0;\n    buyer = address(0);\n  }\n\n  /**\n  * @dev Overload the default transferOwnership in order to emit a Sale event w/ 0 price\n  */\n  function transferOwnership(address newOwner) public onlyOwner {\n    super.transferOwnership(newOwner);\n    Sale(owner, msg.sender, 0);\n  }\n\n}\n",
  "sourcePath": "/Users/ian/provenance/contracts/Listable.sol",
  "compiler": {
    "name": "solc",
    "version": "0.4.18+commit.9cf6e910.Emscripten.clang"
  },
  "schemaVersion": "1.0.1",
  "updatedAt": "2018-01-12T19:50:39.940Z"
}