{
  "contractName": "SecessionWork",
  "abi": [
    {
      "constant": false,
      "inputs": [],
      "name": "cancelArtistRoyaltyForSale",
      "outputs": [],
      "payable": false,
      "stateMutability": "nonpayable",
      "type": "function"
    },
    {
      "constant": false,
      "inputs": [
        {
          "name": "price_",
          "type": "uint256"
        },
        {
          "name": "transitiveReward_",
          "type": "uint256"
        },
        {
          "name": "sellerDeposit_",
          "type": "uint256"
        }
      ],
      "name": "listForDirectSale",
      "outputs": [],
      "payable": false,
      "stateMutability": "nonpayable",
      "type": "function"
    },
    {
      "constant": false,
      "inputs": [
        {
          "name": "bps_",
          "type": "uint256"
        },
        {
          "name": "price_",
          "type": "uint256"
        },
        {
          "name": "buyer_",
          "type": "address"
        }
      ],
      "name": "listArtistRoyaltyForSale",
      "outputs": [],
      "payable": false,
      "stateMutability": "nonpayable",
      "type": "function"
    },
    {
      "constant": false,
      "inputs": [
        {
          "name": "price_",
          "type": "uint256"
        },
        {
          "name": "price_",
          "type": "uint256"
        },
        {
          "name": "buyer_",
          "type": "address"
        }
      ],
      "name": "bid",
      "outputs": [],
      "payable": false,
      "stateMutability": "nonpayable",
      "type": "function"
    },
    {
      "constant": false,
      "inputs": [
        {
          "name": "price_",
          "type": "uint256"
        }
      ],
      "name": "markReceived",
      "outputs": [],
      "payable": false,
      "stateMutability": "nonpayable",
      "type": "function"
    },
    {
      "constant": false,
      "inputs": [
        {
          "name": "price_",
          "type": "uint256"
        },
        {
          "name": "escrow_",
          "type": "address"
        },
        {
          "name": "escrowReward_",
          "type": "uint256"
        },
        {
          "name": "transitiveReward_",
          "type": "uint256"
        },
        {
          "name": "sellerDeposit_",
          "type": "uint256"
        },
        {
          "name": "escrowDeposit_",
          "type": "uint256"
        }
      ],
      "name": "listForEscrowSale",
      "outputs": [],
      "payable": false,
      "stateMutability": "nonpayable",
      "type": "function"
    },
    {
      "constant": false,
      "inputs": [
        {
          "name": "price_",
          "type": "uint256"
        },
        {
          "name": "escrow_",
          "type": "address"
        },
        {
          "name": "escrowReward_",
          "type": "uint256"
        },
        {
          "name": "buyerDeposit_",
          "type": "uint256"
        },
        {
          "name": "sellerDeposit_",
          "type": "uint256"
        },
        {
          "name": "escrowDeposit_",
          "type": "uint256"
        }
      ],
      "name": "acceptEscrow",
      "outputs": [],
      "payable": true,
      "stateMutability": "payable",
      "type": "function"
    },
    {
      "constant": false,
      "inputs": [],
      "name": "buy",
      "outputs": [],
      "payable": true,
      "stateMutability": "payable",
      "type": "function"
    },
    {
      "constant": false,
      "inputs": [],
      "name": "markShipped",
      "outputs": [],
      "payable": false,
      "stateMutability": "nonpayable",
      "type": "function"
    },
    {
      "constant": false,
      "inputs": [
        {
          "name": "seller_",
          "type": "address"
        },
        {
          "name": "newSecret_",
          "type": "string"
        }
      ],
      "name": "buyArtistRoyaltyForSale",
      "outputs": [],
      "payable": true,
      "stateMutability": "payable",
      "type": "function"
    },
    {
      "constant": false,
      "inputs": [],
      "name": "acceptBid",
      "outputs": [],
      "payable": true,
      "stateMutability": "payable",
      "type": "function"
    },
    {
      "constant": false,
      "inputs": [
        {
          "name": "seller_",
          "type": "address"
        }
      ],
      "name": "cancelSale",
      "outputs": [],
      "payable": false,
      "stateMutability": "nonpayable",
      "type": "function"
    },
    {
      "constant": false,
      "inputs": [
        {
          "name": "secret_",
          "type": "string"
        }
      ],
      "name": "verifyReceived",
      "outputs": [],
      "payable": false,
      "stateMutability": "nonpayable",
      "type": "function"
    },
    {
      "constant": false,
      "inputs": [
        {
          "name": "artistRoyaltyBps_",
          "type": "uint256"
        },
        {
          "name": "secret_",
          "type": "string"
        }
      ],
      "name": "cancelSale",
      "outputs": [],
      "payable": true,
      "stateMutability": "payable",
      "type": "constructor"
    },
    {
      "constant": false,
      "inputs": [
        {
          "name": "secret_",
          "type": "string"
        }
      ],
      "name": "verifyReceived",
      "outputs": [],
      "payable": false,
      "stateMutability": "nonpayable",
      "type": "function"
    },
    {
      "inputs": [
        {
          "name": "artistRoyaltyBps_",
          "type": "uint256"
        },
        {
          "name": "secret_",
          "type": "string"
        }
      ],
      "payable": true,
      "stateMutability": "payable",
      "type": "constructor"
    }
  ],
  "bytecode": "0x606060405261271060145560405162002aa938038062002aa9833981016040528080519060200190919080518201919050506200003b620006f9565b6014546005541015156200004e57600080fd5b826005819055506000600660006101000a81548160ff021916908360078111156200007557fe5b0217905550816040518082805190602001908083835b602083101515620000b257805182526020820191506020810190506020830392506200008b565b6001836020036101000a0380198251168184511680821785525050505050509050019150506040518091039020601181600019169055506000816000019073ffffffffffffffffffffffffffffffffffffffff16908173ffffffffffffffffffffffffffffffffffffffff168152505033816020019073ffffffffffffffffffffffffffffffffffffffff16908173ffffffffffffffffffffffffffffffffffffffff16815250506000816080018181525050600f80548060010182816200017b91906200078a565b9160005260206000209060080201600083909190915060008201518160000160006101000a81548173ffffffffffffffffffffffffffffffffffffffff021916908373ffffffffffffffffffffffffffffffffffffffff16021790555060208201518160010160006101000a81548173ffffffffffffffffffffffffffffffffffffffff021916908373ffffffffffffffffffffffffffffffffffffffff16021790555060408201518160010160146101000a81548160ff02191690831515021790555060608201518160020160006101000a81548173ffffffffffffffffffffffffffffffffffffffff021916908373ffffffffffffffffffffffffffffffffffffffff1602179055506080820151816003015560a0820151816004015560c0820151816005015560e082015181600601556101008201518160070155505050336000806101000a81548173ffffffffffffffffffffffffffffffffffffffff021916908373ffffffffffffffffffffffffffffffffffffffff16021790555082600160008060009054906101000a900473ffffffffffffffffffffffffffffffffffffffff1673ffffffffffffffffffffffffffffffffffffffff1673ffffffffffffffffffffffffffffffffffffffff16815260200190815260200160002081905550620003a16000809054906101000a900473ffffffffffffffffffffffffffffffffffffffff16620003f26401000000000262001cc0176401000000009004565b620003e16000809054906101000a900473ffffffffffffffffffffffffffffffffffffffff16620005076401000000000262001ace176401000000009004565b6000601381905550505050620008e9565b600360008273ffffffffffffffffffffffffffffffffffffffff1673ffffffffffffffffffffffffffffffffffffffff16815260200190815260200160002060009054906101000a900460ff1615156200050457600480548060010182816200045c9190620007bf565b9160005260206000209001600083909190916101000a81548173ffffffffffffffffffffffffffffffffffffffff021916908373ffffffffffffffffffffffffffffffffffffffff160217905550506000600360008373ffffffffffffffffffffffffffffffffffffffff1673ffffffffffffffffffffffffffffffffffffffff16815260200190815260200160002060006101000a81548160ff0219169083151502179055505b50565b6000600260008373ffffffffffffffffffffffffffffffffffffffff1673ffffffffffffffffffffffffffffffffffffffff168152602001908152602001600020600301819055506000600260008373ffffffffffffffffffffffffffffffffffffffff1673ffffffffffffffffffffffffffffffffffffffff168152602001908152602001600020600201819055506000600260008373ffffffffffffffffffffffffffffffffffffffff1673ffffffffffffffffffffffffffffffffffffffff16815260200190815260200160002060000160006101000a81548173ffffffffffffffffffffffffffffffffffffffff021916908373ffffffffffffffffffffffffffffffffffffffff1602179055506000600260008373ffffffffffffffffffffffffffffffffffffffff1673ffffffffffffffffffffffffffffffffffffffff16815260200190815260200160002060010160006101000a81548173ffffffffffffffffffffffffffffffffffffffff021916908373ffffffffffffffffffffffffffffffffffffffff1602179055506000600260008373ffffffffffffffffffffffffffffffffffffffff1673ffffffffffffffffffffffffffffffffffffffff16815260200190815260200160002060040160006101000a81548160ff02191690831515021790555050565b61012060405190810160405280600073ffffffffffffffffffffffffffffffffffffffff168152602001600073ffffffffffffffffffffffffffffffffffffffff168152602001600015158152602001600073ffffffffffffffffffffffffffffffffffffffff16815260200160008152602001600081526020016000815260200160008152602001600081525090565b815481835581811511620007ba57600802816008028360005260206000209182019101620007b99190620007ee565b5b505050565b815481835581811511620007e957818360005260206000209182019101620007e89190620008c1565b5b505050565b620008be91905b80821115620008ba57600080820160006101000a81549073ffffffffffffffffffffffffffffffffffffffff02191690556001820160006101000a81549073ffffffffffffffffffffffffffffffffffffffff02191690556001820160146101000a81549060ff02191690556002820160006101000a81549073ffffffffffffffffffffffffffffffffffffffff02191690556003820160009055600482016000905560058201600090556006820160009055600782016000905550600801620007f5565b5090565b90565b620008e691905b80821115620008e2576000816000905550600101620008c8565b5090565b90565b6121b080620008f96000396000f3006060604052600436106100c5576000357c0100000000000000000000000000000000000000000000000000000000900463ffffffff16806322d23eb8146100ca5780632bcdf697146100df578063439e83fe14610114578063454a2ab31461015f5780635748b184146101825780639db3075214610197578063a141b557146101fd578063a6f2ae3a14610207578063bd9c82b614610211578063d700414214610226578063e52a787414610254578063e7e104901461025e578063f56c88ab14610273575b600080fd5b34156100d557600080fd5b6100dd6102a1565b005b34156100ea57600080fd5b6101126004808035906020019091908035906020019091908035906020019091905050610307565b005b341561011f57600080fd5b61015d600480803590602001909190803590602001909190803573ffffffffffffffffffffffffffffffffffffffff169060200190919050506104d1565b005b341561016a57600080fd5b610180600480803590602001909190505061070f565b005b341561018d57600080fd5b610195610826565b005b34156101a257600080fd5b6101fb600480803590602001909190803573ffffffffffffffffffffffffffffffffffffffff169060200190919080359060200190919080359060200190919080359060200190919080359060200190919050506108df565b005b610205610add565b005b61020f610bb8565b005b341561021c57600080fd5b610224610cb7565b005b610252600480803573ffffffffffffffffffffffffffffffffffffffff16906020019091905050610dd4565b005b61025c6112a1565b005b341561026957600080fd5b610271611443565b005b341561027e57600080fd5b61029f60048080359060200190820180359060200191909192905050611597565b005b600260003373ffffffffffffffffffffffffffffffffffffffff1673ffffffffffffffffffffffffffffffffffffffff16815260200190815260200160002060040160009054906101000a900460ff1615156102fc57600080fd5b61030533611ace565b565b600f6001600f805490500381548110151561031e57fe5b906000526020600020906008020160010160009054906101000a900473ffffffffffffffffffffffffffffffffffffffff1673ffffffffffffffffffffffffffffffffffffffff163373ffffffffffffffffffffffffffffffffffffffff1614151561038957600080fd5b6001600660006101000a81548160ff021916908360078111156103a857fe5b021790555033600760000160006101000a81548173ffffffffffffffffffffffffffffffffffffffff021916908373ffffffffffffffffffffffffffffffffffffffff1602179055506000600760010160006101000a81548173ffffffffffffffffffffffffffffffffffffffff021916908373ffffffffffffffffffffffffffffffffffffffff1602179055506000600760010160146101000a81548160ff0219169083151502179055506000600760020160006101000a81548173ffffffffffffffffffffffffffffffffffffffff021916908373ffffffffffffffffffffffffffffffffffffffff160217905550826007600301819055506000600760040181905550816007600601819055508060076005018190555060006007800181905550505050565b82600160003373ffffffffffffffffffffffffffffffffffffffff1673ffffffffffffffffffffffffffffffffffffffff168152602001908152602001600020541015151561051f57600080fd5b82600260003373ffffffffffffffffffffffffffffffffffffffff1673ffffffffffffffffffffffffffffffffffffffff1681526020019081526020016000206003018190555081600260003373ffffffffffffffffffffffffffffffffffffffff1673ffffffffffffffffffffffffffffffffffffffff1681526020019081526020016000206002018190555033600260003373ffffffffffffffffffffffffffffffffffffffff1673ffffffffffffffffffffffffffffffffffffffff16815260200190815260200160002060000160006101000a81548173ffffffffffffffffffffffffffffffffffffffff021916908373ffffffffffffffffffffffffffffffffffffffff16021790555080600260003373ffffffffffffffffffffffffffffffffffffffff1673ffffffffffffffffffffffffffffffffffffffff16815260200190815260200160002060010160006101000a81548173ffffffffffffffffffffffffffffffffffffffff021916908373ffffffffffffffffffffffffffffffffffffffff1602179055506001600260003373ffffffffffffffffffffffffffffffffffffffff1673ffffffffffffffffffffffffffffffffffffffff16815260200190815260200160002060040160006101000a81548160ff021916908315150217905550505050565b6001600781111561071c57fe5b600660009054906101000a900460ff16600781111561073757fe5b14151561074357600080fd5b3373ffffffffffffffffffffffffffffffffffffffff16600760020160009054906101000a900473ffffffffffffffffffffffffffffffffffffffff1673ffffffffffffffffffffffffffffffffffffffff16141515156107a357600080fd5b600760030154811115610823578060076003018190555033600760010160006101000a81548173ffffffffffffffffffffffffffffffffffffffff021916908373ffffffffffffffffffffffffffffffffffffffff1602179055506002600660006101000a81548160ff0219169083600781111561081d57fe5b02179055505b50565b600760020160009054906101000a900473ffffffffffffffffffffffffffffffffffffffff1673ffffffffffffffffffffffffffffffffffffffff163373ffffffffffffffffffffffffffffffffffffffff1614151561088557600080fd5b6006600781111561089257fe5b600660009054906101000a900460ff1660078111156108ad57fe5b1415156108b957600080fd5b6007600660006101000a81548160ff021916908360078111156108d857fe5b0217905550565b600f6001600f80549050038154811015156108f657fe5b906000526020600020906008020160010160009054906101000a900473ffffffffffffffffffffffffffffffffffffffff1673ffffffffffffffffffffffffffffffffffffffff163373ffffffffffffffffffffffffffffffffffffffff1614151561096157600080fd5b6000600781111561096e57fe5b600660009054906101000a900460ff16600781111561098957fe5b14151561099557600080fd5b6001600660006101000a81548160ff021916908360078111156109b457fe5b021790555033600760000160006101000a81548173ffffffffffffffffffffffffffffffffffffffff021916908373ffffffffffffffffffffffffffffffffffffffff1602179055506000600760010160006101000a81548173ffffffffffffffffffffffffffffffffffffffff021916908373ffffffffffffffffffffffffffffffffffffffff1602179055506001600760010160146101000a81548160ff02191690831515021790555084600760020160006101000a81548173ffffffffffffffffffffffffffffffffffffffff021916908373ffffffffffffffffffffffffffffffffffffffff16021790555085600760030181905550836007600401819055508260076006018190555081600760050181905550806007800181905550505050505050565b600760020160009054906101000a900473ffffffffffffffffffffffffffffffffffffffff1673ffffffffffffffffffffffffffffffffffffffff163373ffffffffffffffffffffffffffffffffffffffff16141515610b3c57600080fd5b60036007811115610b4957fe5b600660009054906101000a900460ff166007811115610b6457fe5b141515610b7057600080fd5b600780015434141515610b8257600080fd5b6004600660006101000a81548160ff02191690836007811115610ba157fe5b021790555034601260008282540192505081905550565b600760010160009054906101000a900473ffffffffffffffffffffffffffffffffffffffff1673ffffffffffffffffffffffffffffffffffffffff163373ffffffffffffffffffffffffffffffffffffffff16141515610c1757600080fd5b60046007811115610c2457fe5b600660009054906101000a900460ff166007811115610c3f57fe5b141515610c4b57600080fd5b600760060154600760040154600760030154010134141515610c6c57600080fd5b6005600660006101000a81548160ff02191690836007811115610c8b57fe5b021790555034601260008282540192505081905550600760060154601360008282540192505081905550565b600f6001600f8054905003815481101515610cce57fe5b906000526020600020906008020160010160009054906101000a900473ffffffffffffffffffffffffffffffffffffffff1673ffffffffffffffffffffffffffffffffffffffff163373ffffffffffffffffffffffffffffffffffffffff16141515610d3957600080fd5b60056007811115610d4657fe5b600660009054906101000a900460ff166007811115610d6157fe5b141515610d6d57600080fd5b600760010160149054906101000a900460ff1615610dad5760068060006101000a81548160ff02191690836007811115610da357fe5b0217905550610dd2565b6007600660006101000a81548160ff02191690836007811115610dcc57fe5b02179055505b565b600260008273ffffffffffffffffffffffffffffffffffffffff1673ffffffffffffffffffffffffffffffffffffffff16815260200190815260200160002060030154600160008373ffffffffffffffffffffffffffffffffffffffff1673ffffffffffffffffffffffffffffffffffffffff1681526020019081526020016000205411151515610e6457600080fd5b600260008273ffffffffffffffffffffffffffffffffffffffff1673ffffffffffffffffffffffffffffffffffffffff16815260200190815260200160002060040160009054906101000a900460ff161515610ebf57600080fd5b34600260008373ffffffffffffffffffffffffffffffffffffffff1673ffffffffffffffffffffffffffffffffffffffff16815260200190815260200160002060020154141515610f0f57600080fd5b3373ffffffffffffffffffffffffffffffffffffffff16600260008373ffffffffffffffffffffffffffffffffffffffff1673ffffffffffffffffffffffffffffffffffffffff16815260200190815260200160002060010160009054906101000a900473ffffffffffffffffffffffffffffffffffffffff1673ffffffffffffffffffffffffffffffffffffffff16141515610fab57600080fd5b8073ffffffffffffffffffffffffffffffffffffffff166108fc349081150290604051600060405180830381858888f193505050501515610feb57600080fd5b60108054806001018281610fff9190611f6e565b91600052602060002090600502016000600260008573ffffffffffffffffffffffffffffffffffffffff1673ffffffffffffffffffffffffffffffffffffffff16815260200190815260200160002090919091506000820160009054906101000a900473ffffffffffffffffffffffffffffffffffffffff168160000160006101000a81548173ffffffffffffffffffffffffffffffffffffffff021916908373ffffffffffffffffffffffffffffffffffffffff1602179055506001820160009054906101000a900473ffffffffffffffffffffffffffffffffffffffff168160010160006101000a81548173ffffffffffffffffffffffffffffffffffffffff021916908373ffffffffffffffffffffffffffffffffffffffff16021790555060028201548160020155600382015481600301556004820160009054906101000a900460ff168160040160006101000a81548160ff02191690831515021790555050505061116e81611ace565b61117733611ace565b600260008273ffffffffffffffffffffffffffffffffffffffff1673ffffffffffffffffffffffffffffffffffffffff16815260200190815260200160002060030154600160003373ffffffffffffffffffffffffffffffffffffffff1673ffffffffffffffffffffffffffffffffffffffff16815260200190815260200160002060008282540192505081905550600260008273ffffffffffffffffffffffffffffffffffffffff1673ffffffffffffffffffffffffffffffffffffffff16815260200190815260200160002060030154600160008373ffffffffffffffffffffffffffffffffffffffff1673ffffffffffffffffffffffffffffffffffffffff1681526020019081526020016000206000828254039250508190555061129e33611cc0565b50565b600f6001600f80549050038154811015156112b857fe5b906000526020600020906008020160010160009054906101000a900473ffffffffffffffffffffffffffffffffffffffff1673ffffffffffffffffffffffffffffffffffffffff163373ffffffffffffffffffffffffffffffffffffffff1614151561132357600080fd5b6002600781111561133057fe5b600660009054906101000a900460ff16600781111561134b57fe5b14151561135757600080fd5b6007600601543414151561136a57600080fd5b600073ffffffffffffffffffffffffffffffffffffffff16600760010160009054906101000a900473ffffffffffffffffffffffffffffffffffffffff1673ffffffffffffffffffffffffffffffffffffffff16141515156113cb57600080fd5b34601260008282540192505081905550600760010160149054906101000a900460ff161561141c576003600660006101000a81548160ff0219169083600781111561141257fe5b0217905550611441565b6004600660006101000a81548160ff0219169083600781111561143b57fe5b02179055505b565b600760010160009054906101000a900473ffffffffffffffffffffffffffffffffffffffff1673ffffffffffffffffffffffffffffffffffffffff163373ffffffffffffffffffffffffffffffffffffffff1614806114f25750600760000160009054906101000a900473ffffffffffffffffffffffffffffffffffffffff1673ffffffffffffffffffffffffffffffffffffffff163373ffffffffffffffffffffffffffffffffffffffff16145b8061154d5750600760020160009054906101000a900473ffffffffffffffffffffffffffffffffffffffff1673ffffffffffffffffffffffffffffffffffffffff163373ffffffffffffffffffffffffffffffffffffffff16145b151561155857600080fd5b6004600781111561156557fe5b600660009054906101000a900460ff16600781111561158057fe5b1115151561158d57600080fd5b611595611dd2565b565b600080600080600760010160009054906101000a900473ffffffffffffffffffffffffffffffffffffffff1673ffffffffffffffffffffffffffffffffffffffff163373ffffffffffffffffffffffffffffffffffffffff161415156115fc57600080fd5b85858080601f016020809104026020016040519081016040528093929190818152602001838380828437820191505050505050806040518082805190602001908083835b6020831015156116655780518252602082019150602081019050602083039250611640565b6001836020036101000a038019825116818451168082178552505050505050905001915050604051809103902060001916601154600019161415156116a957600080fd5b6007808111156116b557fe5b600660009054906101000a900460ff1660078111156116d057fe5b1415156116dc57600080fd5b61271060055460145403600760030154028115156116f657fe5b0460076005015401945061172f600760000160009054906101000a900473ffffffffffffffffffffffffffffffffffffffff1686611f1a565b611760600760000160009054906101000a900473ffffffffffffffffffffffffffffffffffffffff16601354611f1a565b612710600554601454036007600401540281151561177a57fe5b0460078001540193506117b2600760020160009054906101000a900473ffffffffffffffffffffffffffffffffffffffff1685611f1a565b600092505b6004805490508310156118aa57612710600160006004868154811015156117da57fe5b906000526020600020900160009054906101000a900473ffffffffffffffffffffffffffffffffffffffff1673ffffffffffffffffffffffffffffffffffffffff1673ffffffffffffffffffffffffffffffffffffffff16815260200190815260200160002054600760040154600760030154010281151561185857fe5b04915061189f60048481548110151561186d57fe5b906000526020600020900160009054906101000a900473ffffffffffffffffffffffffffffffffffffffff1683611f1a565b8260010192506117b7565b6118d76000809054906101000a900473ffffffffffffffffffffffffffffffffffffffff16601254611f1a565b600f80548060010182816118eb9190611fa0565b91600052602060002090600802016000600790919091506000820160009054906101000a900473ffffffffffffffffffffffffffffffffffffffff168160000160006101000a81548173ffffffffffffffffffffffffffffffffffffffff021916908373ffffffffffffffffffffffffffffffffffffffff1602179055506001820160009054906101000a900473ffffffffffffffffffffffffffffffffffffffff168160010160006101000a81548173ffffffffffffffffffffffffffffffffffffffff021916908373ffffffffffffffffffffffffffffffffffffffff1602179055506001820160149054906101000a900460ff168160010160146101000a81548160ff0219169083151502179055506002820160009054906101000a900473ffffffffffffffffffffffffffffffffffffffff168160020160006101000a81548173ffffffffffffffffffffffffffffffffffffffff021916908373ffffffffffffffffffffffffffffffffffffffff16021790555060038201548160030155600482015481600401556005820154816005015560068201548160060155600782015481600701555050506000600660006101000a81548160ff02191690836007811115611ab857fe5b0217905550611ac5611dd2565b50505050505050565b6000600260008373ffffffffffffffffffffffffffffffffffffffff1673ffffffffffffffffffffffffffffffffffffffff168152602001908152602001600020600301819055506000600260008373ffffffffffffffffffffffffffffffffffffffff1673ffffffffffffffffffffffffffffffffffffffff168152602001908152602001600020600201819055506000600260008373ffffffffffffffffffffffffffffffffffffffff1673ffffffffffffffffffffffffffffffffffffffff16815260200190815260200160002060000160006101000a81548173ffffffffffffffffffffffffffffffffffffffff021916908373ffffffffffffffffffffffffffffffffffffffff1602179055506000600260008373ffffffffffffffffffffffffffffffffffffffff1673ffffffffffffffffffffffffffffffffffffffff16815260200190815260200160002060010160006101000a81548173ffffffffffffffffffffffffffffffffffffffff021916908373ffffffffffffffffffffffffffffffffffffffff1602179055506000600260008373ffffffffffffffffffffffffffffffffffffffff1673ffffffffffffffffffffffffffffffffffffffff16815260200190815260200160002060040160006101000a81548160ff02191690831515021790555050565b600360008273ffffffffffffffffffffffffffffffffffffffff1673ffffffffffffffffffffffffffffffffffffffff16815260200190815260200160002060009054906101000a900460ff161515611dcf5760048054806001018281611d279190611fd2565b9160005260206000209001600083909190916101000a81548173ffffffffffffffffffffffffffffffffffffffff021916908373ffffffffffffffffffffffffffffffffffffffff160217905550506000600360008373ffffffffffffffffffffffffffffffffffffffff1673ffffffffffffffffffffffffffffffffffffffff16815260200190815260200160002060006101000a81548160ff0219169083151502179055505b50565b6000600660006101000a81548160ff02191690836007811115611df157fe5b021790555033600760000160006101000a81548173ffffffffffffffffffffffffffffffffffffffff021916908373ffffffffffffffffffffffffffffffffffffffff1602179055506000600760010160006101000a81548173ffffffffffffffffffffffffffffffffffffffff021916908373ffffffffffffffffffffffffffffffffffffffff1602179055506000600760010160146101000a81548160ff0219169083151502179055506000600760020160006101000a81548173ffffffffffffffffffffffffffffffffffffffff021916908373ffffffffffffffffffffffffffffffffffffffff160217905550600060076003018190555060006007600401819055506000600760050181905550600060076006018190555060006007800181905550565b8173ffffffffffffffffffffffffffffffffffffffff166108fc829081150290604051600060405180830381858888f193505050501515611f5a57600080fd5b806012600082825403925050819055505050565b815481835581811511611f9b57600502816005028360005260206000209182019101611f9a9190611ffe565b5b505050565b815481835581811511611fcd57600802816008028360005260206000209182019101611fcc919061208f565b5b505050565b815481835581811511611ff957818360005260206000209182019101611ff8919061215f565b5b505050565b61208c91905b8082111561208857600080820160006101000a81549073ffffffffffffffffffffffffffffffffffffffff02191690556001820160006101000a81549073ffffffffffffffffffffffffffffffffffffffff0219169055600282016000905560038201600090556004820160006101000a81549060ff021916905550600501612004565b5090565b90565b61215c91905b8082111561215857600080820160006101000a81549073ffffffffffffffffffffffffffffffffffffffff02191690556001820160006101000a81549073ffffffffffffffffffffffffffffffffffffffff02191690556001820160146101000a81549060ff02191690556002820160006101000a81549073ffffffffffffffffffffffffffffffffffffffff02191690556003820160009055600482016000905560058201600090556006820160009055600782016000905550600801612095565b5090565b90565b61218191905b8082111561217d576000816000905550600101612165565b5090565b905600a165627a7a723058207e1682ad7d5f9b5ac65844db34cd73555568619bc378ff4f7c7239cfd5b227a50029",
  "source": "pragma solidity ^0.4.17;\n\ncontract SecessionWork {\n  // artist address\n  address artist;\n\n  // metadata for a Sale\n  struct Sale {\n    address seller;\n    address buyer;\n    bool escrowRequired;\n    address escrow;\n\n    // monies\n    uint256 price;\n    uint256 escrowReward;\n    uint256 sellerDeposit;\n    uint256 transitiveReward;\n    uint256 escrowDeposit;\n  }\n\n  // metadata for a RoyaltySale\n  struct RoyaltySale {\n    address seller;\n    address buyer;\n\n    // monies\n    uint256 price;\n    uint256 bps;\n    bool forSale;\n  }\n\n  // mapping for holding royalty tokens\n  mapping(address => uint256) royalties;\n  mapping(address => RoyaltySale) listRoyaltySales;\n  mapping(address => bool) isRoyaltyOwner;\n  address[] royaltyOwners;\n\n  // constant royalty basis points (1/100%) for artist\n  // is applied to every sale\n  uint256 artistRoyaltyBps;\n\n  // Transaction state\n  TransactionState transactionState;\n\n  // proposal by owner for sale\n  Sale listSale;\n\n  // actual sales that occurred\n  Sale[] previousSales;\n  RoyaltySale[] previousRoyaltySales;\n\n  // keccak256 hash of the initial secret.\n  // This must be used to transact the work (in addition to being the owner)\n  bytes32 private keccak256Secret;\n\n  // how much we have been sent, used to make sure there is no orphaned eth\n  uint256 private fundsHeld;\n  // deposit address for th\n  uint256 private transitiveReward;\n\n  uint256 private FULL_BPS = 10000;\n\n  enum TransactionState {\n    Owned,\n    ForSale,\n    ValidBid,\n    BidAccepted,\n    ReadyForPurchase,\n    Purchased,\n    InTransit,\n    UnverifiedRecipt\n  }\n\n  // basic checks for ensuring only certain addresses can do certain things\n  modifier artistOnly() { require(msg.sender == artist); _; }\n  modifier ownerOnly() {\n    require(msg.sender == previousSales[previousSales.length - 1].buyer);\n    _;\n  }\n  modifier escrowOnly() { require(msg.sender == listSale.escrow); _; }\n  modifier buyerOnly() { require(msg.sender == listSale.buyer); _; }\n  modifier secretHolderOnly(string secret) {\n    require(keccak256Secret == keccak256(secret));\n    _;\n  }\n  modifier contractAddressesOnly() {\n    require(\n      msg.sender == listSale.buyer ||\n      msg.sender == listSale.seller ||\n      msg.sender == listSale.escrow\n    );\n    _;\n  }\n  modifier setupPhaseOnly() {\n    require(\n      uint(transactionState) <= uint(TransactionState.ReadyForPurchase)\n    );\n    _;\n  }\n\n  // register a work, will be added to the work array held by this contract\n  function SecessionWork(uint256 artistRoyaltyBps_,\n                         string secret_) public payable {\n\n    // make sure the royalty percantage is < 100%\n    require(artistRoyaltyBps < FULL_BPS);\n\n    artistRoyaltyBps = artistRoyaltyBps_;\n    transactionState = TransactionState.Owned;\n    keccak256Secret = keccak256(secret_);\n\n    Sale memory registrationSale;\n    registrationSale.seller = address(0);\n    registrationSale.buyer = msg.sender;\n    registrationSale.price = 0;\n    previousSales.push(registrationSale);\n\n    artist = msg.sender;\n\n    royalties[artist] = artistRoyaltyBps_;\n    addRoyaltyOwner(artist);\n\n    clearRoyaltySale(artist);\n\n    transitiveReward = 0;\n  }\n\n  function addRoyaltyOwner(address newOwner_) private {\n    if (!isRoyaltyOwner[newOwner_]) {\n      royaltyOwners.push(newOwner_);\n      isRoyaltyOwner[newOwner_] = false;\n    }\n  }\n\n  function clearRoyaltySale(address sender_) private {\n    listRoyaltySales[sender_].bps = 0;\n    listRoyaltySales[sender_].price = 0;\n    listRoyaltySales[sender_].seller = address(0);\n    listRoyaltySales[sender_].buyer = address(0);\n    listRoyaltySales[sender_].forSale = false;\n  }\n\n  // list artist royalty for sale\n  function listArtistRoyaltyForSale(uint256 bps_,\n                                    uint256 price_,\n                                    address buyer_) external {\n    require(royalties[msg.sender] >= bps_);\n\n    listRoyaltySales[msg.sender].bps = bps_;\n    listRoyaltySales[msg.sender].price = price_;\n    listRoyaltySales[msg.sender].seller = msg.sender;\n    listRoyaltySales[msg.sender].buyer = buyer_;\n    listRoyaltySales[msg.sender].forSale = true;\n  }\n\n  function cancelArtistRoyaltyForSale() external {\n    require(listRoyaltySales[msg.sender].forSale);\n    clearRoyaltySale(msg.sender);\n  }\n\n  function buyArtistRoyaltyForSale(address seller_) external payable {\n    require(royalties[seller_] <= listRoyaltySales[seller_].bps);\n    require(listRoyaltySales[seller_].forSale);\n    require(listRoyaltySales[seller_].price == msg.value);\n    require(listRoyaltySales[seller_].buyer == msg.sender);\n\n    seller_.transfer(msg.value);\n\n    previousRoyaltySales.push(listRoyaltySales[seller_]);\n    clearRoyaltySale(seller_);\n    clearRoyaltySale(msg.sender);\n    royalties[msg.sender] += listRoyaltySales[seller_].bps;\n    royalties[seller_] -= listRoyaltySales[seller_].bps;\n    addRoyaltyOwner(msg.sender);\n  }\n\n  // make a escrow-less listing\n  function listForDirectSale(uint256 price_,\n                             uint256 transitiveReward_,\n                             uint256 sellerDeposit_) external\n    ownerOnly()\n  {\n    transactionState = TransactionState.ForSale;\n    listSale.seller = msg.sender;\n    listSale.buyer = address(0);\n    listSale.escrowRequired = false;\n    listSale.escrow = address(0);\n    listSale.price = price_;\n    listSale.escrowReward = 0;\n    listSale.transitiveReward = transitiveReward_;\n    listSale.sellerDeposit = sellerDeposit_;\n    listSale.escrowDeposit = 0;\n  }\n\n  // make a listing\n  function listForEscrowSale(uint256 price_,\n                             address escrow_,\n                             uint256 escrowReward_,\n                             uint256 transitiveReward_,\n                             uint256 sellerDeposit_,\n                             uint256 escrowDeposit_) external\n    ownerOnly()\n  {\n    require (transactionState == TransactionState.Owned);\n    transactionState = TransactionState.ForSale;\n    listSale.seller = msg.sender;\n    listSale.buyer = address(0);\n    listSale.escrowRequired = true;\n    listSale.escrow = escrow_;\n    listSale.price = price_;\n    listSale.escrowReward = escrowReward_;\n    listSale.transitiveReward = transitiveReward_;\n    listSale.sellerDeposit = sellerDeposit_;\n    listSale.escrowDeposit = escrowDeposit_;\n  }\n\n  function clearListing() internal {\n    transactionState = TransactionState.Owned;\n    listSale.seller = msg.sender;\n    listSale.buyer = address(0);\n    listSale.escrowRequired = false;\n    listSale.escrow = address(0);\n    listSale.price = 0;\n    listSale.escrowReward = 0;\n    listSale.sellerDeposit = 0;\n    listSale.transitiveReward = 0;\n    listSale.escrowDeposit = 0;\n  }\n\n  // clear the listing\n  function cancelSale() external\n    contractAddressesOnly()\n    setupPhaseOnly()\n  {\n    clearListing();\n  }\n\n  // bid for a chance to buy.\n  // highest bid always gets to be the buyer.\n  function bid(uint256 price_) external\n  {\n    require(transactionState == TransactionState.ForSale);\n    require(listSale.escrow != msg.sender);\n    if (price_ > listSale.price) {\n      listSale.price = price_;\n      listSale.buyer = msg.sender;\n      transactionState = TransactionState.ValidBid;\n    }\n  }\n\n  // provide escrow reward (to go to shipping/insurance company)\n  function acceptBid() external payable\n    ownerOnly()\n  {\n    require(transactionState == TransactionState.ValidBid);\n    require(msg.value == listSale.transitiveReward);\n    require(listSale.buyer != address(0)); // TODO replace with actual state\n    fundsHeld += msg.value;\n    if (listSale.escrowRequired) {\n      transactionState = TransactionState.BidAccepted;\n    } else {\n      transactionState = TransactionState.ReadyForPurchase;\n    }\n  }\n\n  // provide escrow deposit (to give incentive to shipping/insurance)\n  function acceptEscrow() external payable\n    escrowOnly()\n  {\n    require(transactionState == TransactionState.BidAccepted);\n    require(msg.value == listSale.escrowDeposit);\n    transactionState = TransactionState.ReadyForPurchase;\n    fundsHeld += msg.value;\n  }\n\n  // provide escrow reward (to go to shipping/insurance company)\n  function buy() external payable\n    buyerOnly()\n  {\n    require(transactionState == TransactionState.ReadyForPurchase);\n    require(\n      msg.value == (listSale.price + listSale.escrowReward + listSale.transitiveReward)\n    );\n    transactionState = TransactionState.Purchased;\n    fundsHeld += msg.value;\n    transitiveReward += listSale.transitiveReward;\n  }\n\n  // function for marking shipped by the shipping/insurance company\n  function markShipped() external\n    ownerOnly()\n  {\n    require(transactionState == TransactionState.Purchased);\n    if (listSale.escrowRequired) {\n      transactionState = TransactionState.InTransit;\n    } else {\n      transactionState = TransactionState.UnverifiedRecipt;\n    }\n  }\n\n  // function for marking received by purchaser\n  function markReceived() external\n    escrowOnly()\n  {\n    require(transactionState == TransactionState.InTransit);\n    transactionState = TransactionState.UnverifiedRecipt;\n  }\n\n  // clear the listing\n  function sendPayment(address payee_, uint256 amount_) internal\n  {\n    payee_.transfer(amount_);\n    fundsHeld -= amount_;\n  }\n\n  // function for shipping/insurance company to verify the receipt\n  // initiates all transfers in check-effects-interactions\n  function verifyReceived(string secret_) external\n    buyerOnly()\n    secretHolderOnly(secret_)\n  {\n    require(transactionState == TransactionState.UnverifiedRecipt);\n\n    // process transactions\n    // seller\n    uint256 sellerPayment =\n      listSale.sellerDeposit +\n      listSale.price * (FULL_BPS - artistRoyaltyBps) / 10000;\n    sendPayment(listSale.seller, sellerPayment);\n    // buyer deposit from previous sale\n    sendPayment(listSale.seller, transitiveReward);\n\n    // escrow/shipping/insurance\n    uint256 escrowPayment =\n      listSale.escrowDeposit +\n      listSale.escrowReward * (FULL_BPS - artistRoyaltyBps) / 10000;\n    sendPayment(listSale.escrow, escrowPayment);\n\n    // artist royalty (fixed percentage + change from other transactions)\n\n    // loop through royalty owners and send royalties due\n    for(uint i = 0; i < royaltyOwners.length; ++i) {\n      uint256 royaltyPayment =\n        (listSale.price + listSale.escrowReward) * royalties[royaltyOwners[i]] / 10000;\n      sendPayment(royaltyOwners[i], royaltyPayment);\n    }\n    // send any change to artist\n    sendPayment(artist, fundsHeld);\n\n    previousSales.push(listSale);\n    transactionState = TransactionState.Owned;\n    clearListing();\n  }\n}",
  "sourcePath": "/Users/ian/Secession/contracts/SecessionWork.sol",
  "compiler": {
    "name": "solc",
    "version": "0.4.18+commit.9cf6e910.Emscripten.clang"
  },
  "schemaVersion": "1.0.1",
  "updatedAt": "2017-12-20T08:30:32.355Z"
}