{
  "contractName": "SecessionWork",
  "abi": [
    {
      "constant": false,
      "inputs": [],
      "name": "cancelArtistRoyaltyForSale",
      "outputs": [],
      "payable": false,
      "stateMutability": "nonpayable",
      "type": "function"
    },
    {
      "constant": false,
      "inputs": [
        {
          "name": "price_",
          "type": "uint256"
        },
        {
          "name": "transitiveReward_",
          "type": "uint256"
        },
        {
          "name": "sellerDeposit_",
          "type": "uint256"
        }
      ],
      "name": "listForDirectSale",
      "outputs": [],
      "payable": false,
      "stateMutability": "nonpayable",
      "type": "function"
    },
    {
      "constant": false,
      "inputs": [
        {
          "name": "bps_",
          "type": "uint256"
        },
        {
          "name": "price_",
          "type": "uint256"
        },
        {
          "name": "buyer_",
          "type": "address"
        }
      ],
      "name": "listArtistRoyaltyForSale",
      "outputs": [],
      "payable": false,
      "stateMutability": "nonpayable",
      "type": "function"
    },
    {
      "constant": false,
      "inputs": [
        {
          "name": "price_",
          "type": "uint256"
        },
        {
          "name": "price_",
          "type": "uint256"
        },
        {
          "name": "buyer_",
          "type": "address"
        }
      ],
      "name": "bid",
      "outputs": [],
      "payable": false,
      "stateMutability": "nonpayable",
      "type": "function"
    },
    {
      "constant": false,
      "inputs": [
        {
          "name": "price_",
          "type": "uint256"
        }
      ],
      "name": "markReceived",
      "outputs": [],
      "payable": false,
      "stateMutability": "nonpayable",
      "type": "function"
    },
    {
      "constant": false,
      "inputs": [
        {
          "name": "price_",
          "type": "uint256"
        },
        {
          "name": "escrow_",
          "type": "address"
        },
        {
          "name": "escrowReward_",
          "type": "uint256"
        },
        {
          "name": "transitiveReward_",
          "type": "uint256"
        },
        {
          "name": "sellerDeposit_",
          "type": "uint256"
        },
        {
          "name": "escrowDeposit_",
          "type": "uint256"
        }
      ],
      "name": "listForEscrowSale",
      "outputs": [],
      "payable": false,
      "stateMutability": "nonpayable",
      "type": "function"
    },
    {
      "constant": false,
      "inputs": [
        {
          "name": "price_",
          "type": "uint256"
        },
        {
          "name": "escrow_",
          "type": "address"
        },
        {
          "name": "escrowReward_",
          "type": "uint256"
        },
        {
          "name": "buyerDeposit_",
          "type": "uint256"
        },
        {
          "name": "sellerDeposit_",
          "type": "uint256"
        },
        {
          "name": "escrowDeposit_",
          "type": "uint256"
        }
      ],
      "name": "acceptEscrow",
      "outputs": [],
      "payable": true,
      "stateMutability": "payable",
      "type": "function"
    },
    {
      "constant": false,
      "inputs": [],
      "name": "buy",
      "outputs": [],
      "payable": true,
      "stateMutability": "payable",
      "type": "function"
    },
    {
      "constant": false,
      "inputs": [],
      "name": "markShipped",
      "outputs": [],
      "payable": false,
      "stateMutability": "nonpayable",
      "type": "function"
    },
    {
      "constant": false,
      "inputs": [
        {
          "name": "seller_",
          "type": "address"
        },
        {
          "name": "newSecret_",
          "type": "string"
        }
      ],
      "name": "buyArtistRoyaltyForSale",
      "outputs": [],
      "payable": true,
      "stateMutability": "payable",
      "type": "function"
    },
    {
      "constant": false,
      "inputs": [],
      "name": "acceptBid",
      "outputs": [],
      "payable": true,
      "stateMutability": "payable",
      "type": "function"
    },
    {
      "constant": false,
      "inputs": [
        {
          "name": "seller_",
          "type": "address"
        }
      ],
      "name": "cancelSale",
      "outputs": [],
      "payable": false,
      "stateMutability": "nonpayable",
      "type": "function"
    },
    {
      "constant": false,
      "inputs": [
        {
          "name": "secret_",
          "type": "string"
        }
      ],
      "name": "verifyReceived",
      "outputs": [],
      "payable": false,
      "stateMutability": "nonpayable",
      "type": "function"
    },
    {
      "constant": false,
      "inputs": [
        {
          "name": "artist_",
          "type": "address"
        },
        {
          "name": "artistRoyaltyBps_",
          "type": "uint256"
        },
        {
          "name": "secret_",
          "type": "string"
        }
      ],
      "name": "cancelSale",
      "outputs": [],
      "payable": false,
      "stateMutability": "nonpayable",
      "type": "constructor"
    },
    {
      "constant": false,
      "inputs": [
        {
          "name": "secret_",
          "type": "string"
        }
      ],
      "name": "verifyReceived",
      "outputs": [],
      "payable": false,
      "stateMutability": "nonpayable",
      "type": "function"
    },
    {
      "inputs": [
        {
          "name": "artistRoyaltyBps_",
          "type": "uint256"
        },
        {
          "name": "secret_",
          "type": "string"
        }
      ],
      "payable": true,
      "stateMutability": "payable",
      "type": "constructor"
    }
  ],
  "bytecode": "0x606060405261271060195534156200001657600080fd5b604051620026b8380380620026b88339810160405280805190602001909190805190602001909190805182019190505062000050620006e9565b6019546005541015156200006357600080fd5b826005819055506000600660006101000a81548160ff021916908360078111156200008a57fe5b0217905550816040518082805190602001908083835b602083101515620000c75780518252602082019150602081019050602083039250620000a0565b6001836020036101000a0380198251168184511680821785525050505050509050019150506040518091039020601781600019169055506000816000019073ffffffffffffffffffffffffffffffffffffffff16908173ffffffffffffffffffffffffffffffffffffffff168152505033816020019073ffffffffffffffffffffffffffffffffffffffff16908173ffffffffffffffffffffffffffffffffffffffff1681525050600081608001818152505060008160e001818152505080600f60008201518160000160006101000a81548173ffffffffffffffffffffffffffffffffffffffff021916908373ffffffffffffffffffffffffffffffffffffffff16021790555060208201518160010160006101000a81548173ffffffffffffffffffffffffffffffffffffffff021916908373ffffffffffffffffffffffffffffffffffffffff16021790555060408201518160010160146101000a81548160ff02191690831515021790555060608201518160020160006101000a81548173ffffffffffffffffffffffffffffffffffffffff021916908373ffffffffffffffffffffffffffffffffffffffff1602179055506080820151816003015560a0820151816004015560c0820151816005015560e082015181600601556101008201518160070155905050836000806101000a81548173ffffffffffffffffffffffffffffffffffffffff021916908373ffffffffffffffffffffffffffffffffffffffff16021790555082600160008060009054906101000a900473ffffffffffffffffffffffffffffffffffffffff1673ffffffffffffffffffffffffffffffffffffffff1673ffffffffffffffffffffffffffffffffffffffff16815260200190815260200160002081905550620003986000809054906101000a900473ffffffffffffffffffffffffffffffffffffffff16620003e26401000000000262001a63176401000000009004565b620003d86000809054906101000a900473ffffffffffffffffffffffffffffffffffffffff16620004f76401000000000262001871176401000000009004565b50505050620007d1565b600360008273ffffffffffffffffffffffffffffffffffffffff1673ffffffffffffffffffffffffffffffffffffffff16815260200190815260200160002060009054906101000a900460ff161515620004f457600480548060010182816200044c91906200077a565b9160005260206000209001600083909190916101000a81548173ffffffffffffffffffffffffffffffffffffffff021916908373ffffffffffffffffffffffffffffffffffffffff160217905550506001600360008373ffffffffffffffffffffffffffffffffffffffff1673ffffffffffffffffffffffffffffffffffffffff16815260200190815260200160002060006101000a81548160ff0219169083151502179055505b50565b6000600260008373ffffffffffffffffffffffffffffffffffffffff1673ffffffffffffffffffffffffffffffffffffffff168152602001908152602001600020600301819055506000600260008373ffffffffffffffffffffffffffffffffffffffff1673ffffffffffffffffffffffffffffffffffffffff168152602001908152602001600020600201819055506000600260008373ffffffffffffffffffffffffffffffffffffffff1673ffffffffffffffffffffffffffffffffffffffff16815260200190815260200160002060000160006101000a81548173ffffffffffffffffffffffffffffffffffffffff021916908373ffffffffffffffffffffffffffffffffffffffff1602179055506000600260008373ffffffffffffffffffffffffffffffffffffffff1673ffffffffffffffffffffffffffffffffffffffff16815260200190815260200160002060010160006101000a81548173ffffffffffffffffffffffffffffffffffffffff021916908373ffffffffffffffffffffffffffffffffffffffff1602179055506000600260008373ffffffffffffffffffffffffffffffffffffffff1673ffffffffffffffffffffffffffffffffffffffff16815260200190815260200160002060040160006101000a81548160ff02191690831515021790555050565b61012060405190810160405280600073ffffffffffffffffffffffffffffffffffffffff168152602001600073ffffffffffffffffffffffffffffffffffffffff168152602001600015158152602001600073ffffffffffffffffffffffffffffffffffffffff16815260200160008152602001600081526020016000815260200160008152602001600081525090565b815481835581811511620007a457818360005260206000209182019101620007a39190620007a9565b5b505050565b620007ce91905b80821115620007ca576000816000905550600101620007b0565b5090565b90565b611ed780620007e16000396000f3006060604052600436106100c5576000357c0100000000000000000000000000000000000000000000000000000000900463ffffffff16806322d23eb8146100ca5780632bcdf697146100df578063439e83fe14610114578063454a2ab31461015f5780635748b184146101825780639db3075214610197578063a141b557146101fd578063a6f2ae3a14610207578063bd9c82b614610211578063d700414214610226578063e52a787414610254578063e7e104901461025e578063f56c88ab14610273575b600080fd5b34156100d557600080fd5b6100dd6102a1565b005b34156100ea57600080fd5b6101126004808035906020019091908035906020019091908035906020019091905050610307565b005b341561011f57600080fd5b61015d600480803590602001909190803590602001909190803573ffffffffffffffffffffffffffffffffffffffff169060200190919050506104ae565b005b341561016a57600080fd5b61018060048080359060200190919050506106ec565b005b341561018d57600080fd5b610195610803565b005b34156101a257600080fd5b6101fb600480803590602001909190803573ffffffffffffffffffffffffffffffffffffffff169060200190919080359060200190919080359060200190919080359060200190919080359060200190919050506108bc565b005b610205610a97565b005b61020f610b72565b005b341561021c57600080fd5b610224610c5c565b005b610252600480803573ffffffffffffffffffffffffffffffffffffffff16906020019091905050610d56565b005b61025c6110a9565b005b341561026957600080fd5b610271611228565b005b341561027e57600080fd5b61029f60048080359060200190820180359060200191909192905050611384565b005b600260003373ffffffffffffffffffffffffffffffffffffffff1673ffffffffffffffffffffffffffffffffffffffff16815260200190815260200160002060040160009054906101000a900460ff1615156102fc57600080fd5b61030533611871565b565b600f60010160009054906101000a900473ffffffffffffffffffffffffffffffffffffffff1673ffffffffffffffffffffffffffffffffffffffff163373ffffffffffffffffffffffffffffffffffffffff1614151561036657600080fd5b6001600660006101000a81548160ff0219169083600781111561038557fe5b021790555033600760000160006101000a81548173ffffffffffffffffffffffffffffffffffffffff021916908373ffffffffffffffffffffffffffffffffffffffff1602179055506000600760010160006101000a81548173ffffffffffffffffffffffffffffffffffffffff021916908373ffffffffffffffffffffffffffffffffffffffff1602179055506000600760010160146101000a81548160ff0219169083151502179055506000600760020160006101000a81548173ffffffffffffffffffffffffffffffffffffffff021916908373ffffffffffffffffffffffffffffffffffffffff160217905550826007600301819055506000600760040181905550816007600601819055508060076005018190555060006007800181905550505050565b82600160003373ffffffffffffffffffffffffffffffffffffffff1673ffffffffffffffffffffffffffffffffffffffff16815260200190815260200160002054101515156104fc57600080fd5b82600260003373ffffffffffffffffffffffffffffffffffffffff1673ffffffffffffffffffffffffffffffffffffffff1681526020019081526020016000206003018190555081600260003373ffffffffffffffffffffffffffffffffffffffff1673ffffffffffffffffffffffffffffffffffffffff1681526020019081526020016000206002018190555033600260003373ffffffffffffffffffffffffffffffffffffffff1673ffffffffffffffffffffffffffffffffffffffff16815260200190815260200160002060000160006101000a81548173ffffffffffffffffffffffffffffffffffffffff021916908373ffffffffffffffffffffffffffffffffffffffff16021790555080600260003373ffffffffffffffffffffffffffffffffffffffff1673ffffffffffffffffffffffffffffffffffffffff16815260200190815260200160002060010160006101000a81548173ffffffffffffffffffffffffffffffffffffffff021916908373ffffffffffffffffffffffffffffffffffffffff1602179055506001600260003373ffffffffffffffffffffffffffffffffffffffff1673ffffffffffffffffffffffffffffffffffffffff16815260200190815260200160002060040160006101000a81548160ff021916908315150217905550505050565b600160078111156106f957fe5b600660009054906101000a900460ff16600781111561071457fe5b14151561072057600080fd5b3373ffffffffffffffffffffffffffffffffffffffff16600760020160009054906101000a900473ffffffffffffffffffffffffffffffffffffffff1673ffffffffffffffffffffffffffffffffffffffff161415151561078057600080fd5b600760030154811115610800578060076003018190555033600760010160006101000a81548173ffffffffffffffffffffffffffffffffffffffff021916908373ffffffffffffffffffffffffffffffffffffffff1602179055506002600660006101000a81548160ff021916908360078111156107fa57fe5b02179055505b50565b600760020160009054906101000a900473ffffffffffffffffffffffffffffffffffffffff1673ffffffffffffffffffffffffffffffffffffffff163373ffffffffffffffffffffffffffffffffffffffff1614151561086257600080fd5b6006600781111561086f57fe5b600660009054906101000a900460ff16600781111561088a57fe5b14151561089657600080fd5b6007600660006101000a81548160ff021916908360078111156108b557fe5b0217905550565b600f60010160009054906101000a900473ffffffffffffffffffffffffffffffffffffffff1673ffffffffffffffffffffffffffffffffffffffff163373ffffffffffffffffffffffffffffffffffffffff1614151561091b57600080fd5b6000600781111561092857fe5b600660009054906101000a900460ff16600781111561094357fe5b14151561094f57600080fd5b6001600660006101000a81548160ff0219169083600781111561096e57fe5b021790555033600760000160006101000a81548173ffffffffffffffffffffffffffffffffffffffff021916908373ffffffffffffffffffffffffffffffffffffffff1602179055506000600760010160006101000a81548173ffffffffffffffffffffffffffffffffffffffff021916908373ffffffffffffffffffffffffffffffffffffffff1602179055506001600760010160146101000a81548160ff02191690831515021790555084600760020160006101000a81548173ffffffffffffffffffffffffffffffffffffffff021916908373ffffffffffffffffffffffffffffffffffffffff16021790555085600760030181905550836007600401819055508260076006018190555081600760050181905550806007800181905550505050505050565b600760020160009054906101000a900473ffffffffffffffffffffffffffffffffffffffff1673ffffffffffffffffffffffffffffffffffffffff163373ffffffffffffffffffffffffffffffffffffffff16141515610af657600080fd5b60036007811115610b0357fe5b600660009054906101000a900460ff166007811115610b1e57fe5b141515610b2a57600080fd5b600780015434141515610b3c57600080fd5b6004600660006101000a81548160ff02191690836007811115610b5b57fe5b021790555034601860008282540192505081905550565b600760010160009054906101000a900473ffffffffffffffffffffffffffffffffffffffff1673ffffffffffffffffffffffffffffffffffffffff163373ffffffffffffffffffffffffffffffffffffffff16141515610bd157600080fd5b60046007811115610bde57fe5b600660009054906101000a900460ff166007811115610bf957fe5b141515610c0557600080fd5b600760060154600760040154600760030154010134141515610c2657600080fd5b6005600660006101000a81548160ff02191690836007811115610c4557fe5b021790555034601860008282540192505081905550565b600f60010160009054906101000a900473ffffffffffffffffffffffffffffffffffffffff1673ffffffffffffffffffffffffffffffffffffffff163373ffffffffffffffffffffffffffffffffffffffff16141515610cbb57600080fd5b60056007811115610cc857fe5b600660009054906101000a900460ff166007811115610ce357fe5b141515610cef57600080fd5b600760010160149054906101000a900460ff1615610d2f5760068060006101000a81548160ff02191690836007811115610d2557fe5b0217905550610d54565b6007600660006101000a81548160ff02191690836007811115610d4e57fe5b02179055505b565b600260008273ffffffffffffffffffffffffffffffffffffffff1673ffffffffffffffffffffffffffffffffffffffff16815260200190815260200160002060030154600160008373ffffffffffffffffffffffffffffffffffffffff1673ffffffffffffffffffffffffffffffffffffffff1681526020019081526020016000205411151515610de657600080fd5b600260008273ffffffffffffffffffffffffffffffffffffffff1673ffffffffffffffffffffffffffffffffffffffff16815260200190815260200160002060040160009054906101000a900460ff161515610e4157600080fd5b34600260008373ffffffffffffffffffffffffffffffffffffffff1673ffffffffffffffffffffffffffffffffffffffff16815260200190815260200160002060020154141515610e9157600080fd5b3373ffffffffffffffffffffffffffffffffffffffff16600260008373ffffffffffffffffffffffffffffffffffffffff1673ffffffffffffffffffffffffffffffffffffffff16815260200190815260200160002060010160009054906101000a900473ffffffffffffffffffffffffffffffffffffffff1673ffffffffffffffffffffffffffffffffffffffff16141515610f2d57600080fd5b8073ffffffffffffffffffffffffffffffffffffffff166108fc349081150290604051600060405180830381858888f193505050501515610f6d57600080fd5b610f7681611871565b610f7f33611871565b600260008273ffffffffffffffffffffffffffffffffffffffff1673ffffffffffffffffffffffffffffffffffffffff16815260200190815260200160002060030154600160003373ffffffffffffffffffffffffffffffffffffffff1673ffffffffffffffffffffffffffffffffffffffff16815260200190815260200160002060008282540192505081905550600260008273ffffffffffffffffffffffffffffffffffffffff1673ffffffffffffffffffffffffffffffffffffffff16815260200190815260200160002060030154600160008373ffffffffffffffffffffffffffffffffffffffff1673ffffffffffffffffffffffffffffffffffffffff168152602001908152602001600020600082825403925050819055506110a633611a63565b50565b600f60010160009054906101000a900473ffffffffffffffffffffffffffffffffffffffff1673ffffffffffffffffffffffffffffffffffffffff163373ffffffffffffffffffffffffffffffffffffffff1614151561110857600080fd5b6002600781111561111557fe5b600660009054906101000a900460ff16600781111561113057fe5b14151561113c57600080fd5b6007600501543414151561114f57600080fd5b600073ffffffffffffffffffffffffffffffffffffffff16600760010160009054906101000a900473ffffffffffffffffffffffffffffffffffffffff1673ffffffffffffffffffffffffffffffffffffffff16141515156111b057600080fd5b34601860008282540192505081905550600760010160149054906101000a900460ff1615611201576003600660006101000a81548160ff021916908360078111156111f757fe5b0217905550611226565b6004600660006101000a81548160ff0219169083600781111561122057fe5b02179055505b565b600760010160009054906101000a900473ffffffffffffffffffffffffffffffffffffffff1673ffffffffffffffffffffffffffffffffffffffff163373ffffffffffffffffffffffffffffffffffffffff1614806112d75750600760000160009054906101000a900473ffffffffffffffffffffffffffffffffffffffff1673ffffffffffffffffffffffffffffffffffffffff163373ffffffffffffffffffffffffffffffffffffffff16145b806113325750600760020160009054906101000a900473ffffffffffffffffffffffffffffffffffffffff1673ffffffffffffffffffffffffffffffffffffffff163373ffffffffffffffffffffffffffffffffffffffff16145b151561133d57600080fd5b6004600781111561134a57fe5b600660009054906101000a900460ff16600781111561136557fe5b1115151561137257600080fd5b61137a611b75565b611382611cbe565b565b600080600080600760010160009054906101000a900473ffffffffffffffffffffffffffffffffffffffff1673ffffffffffffffffffffffffffffffffffffffff163373ffffffffffffffffffffffffffffffffffffffff161415156113e957600080fd5b85858080601f016020809104026020016040519081016040528093929190818152602001838380828437820191505050505050806040518082805190602001908083835b602083101515611452578051825260208201915060208101905060208303925061142d565b6001836020036101000a0380198251168184511680821785525050505050509050019150506040518091039020600019166017546000191614151561149657600080fd5b6007808111156114a257fe5b600660009054906101000a900460ff1660078111156114bd57fe5b1415156114c957600080fd5b600f6006015460076005015401945061271060055460195403600760030154028115156114f257fe5b5050611523600760000160009054906101000a900473ffffffffffffffffffffffffffffffffffffffff1686611e06565b612710600554601954036007600401540281151561153d57fe5b046007800154019350611575600760020160009054906101000a900473ffffffffffffffffffffffffffffffffffffffff1685611e06565b600092505b60048054905083101561166d576127106001600060048681548110151561159d57fe5b906000526020600020900160009054906101000a900473ffffffffffffffffffffffffffffffffffffffff1673ffffffffffffffffffffffffffffffffffffffff1673ffffffffffffffffffffffffffffffffffffffff16815260200190815260200160002054600760040154600760030154010281151561161b57fe5b04915061166260048481548110151561163057fe5b906000526020600020900160009054906101000a900473ffffffffffffffffffffffffffffffffffffffff1683611e06565b82600101925061157a565b6116a16000809054906101000a900473ffffffffffffffffffffffffffffffffffffffff1660076006015460185403611e06565b6007600f6000820160009054906101000a900473ffffffffffffffffffffffffffffffffffffffff168160000160006101000a81548173ffffffffffffffffffffffffffffffffffffffff021916908373ffffffffffffffffffffffffffffffffffffffff1602179055506001820160009054906101000a900473ffffffffffffffffffffffffffffffffffffffff168160010160006101000a81548173ffffffffffffffffffffffffffffffffffffffff021916908373ffffffffffffffffffffffffffffffffffffffff1602179055506001820160149054906101000a900460ff168160010160146101000a81548160ff0219169083151502179055506002820160009054906101000a900473ffffffffffffffffffffffffffffffffffffffff168160020160006101000a81548173ffffffffffffffffffffffffffffffffffffffff021916908373ffffffffffffffffffffffffffffffffffffffff16021790555060038201548160030155600482015481600401556005820154816005015560068201548160060155600782015481600701559050506000600660006101000a81548160ff0219169083600781111561185b57fe5b0217905550611868611cbe565b50505050505050565b6000600260008373ffffffffffffffffffffffffffffffffffffffff1673ffffffffffffffffffffffffffffffffffffffff168152602001908152602001600020600301819055506000600260008373ffffffffffffffffffffffffffffffffffffffff1673ffffffffffffffffffffffffffffffffffffffff168152602001908152602001600020600201819055506000600260008373ffffffffffffffffffffffffffffffffffffffff1673ffffffffffffffffffffffffffffffffffffffff16815260200190815260200160002060000160006101000a81548173ffffffffffffffffffffffffffffffffffffffff021916908373ffffffffffffffffffffffffffffffffffffffff1602179055506000600260008373ffffffffffffffffffffffffffffffffffffffff1673ffffffffffffffffffffffffffffffffffffffff16815260200190815260200160002060010160006101000a81548173ffffffffffffffffffffffffffffffffffffffff021916908373ffffffffffffffffffffffffffffffffffffffff1602179055506000600260008373ffffffffffffffffffffffffffffffffffffffff1673ffffffffffffffffffffffffffffffffffffffff16815260200190815260200160002060040160006101000a81548160ff02191690831515021790555050565b600360008273ffffffffffffffffffffffffffffffffffffffff1673ffffffffffffffffffffffffffffffffffffffff16815260200190815260200160002060009054906101000a900460ff161515611b725760048054806001018281611aca9190611e5a565b9160005260206000209001600083909190916101000a81548173ffffffffffffffffffffffffffffffffffffffff021916908373ffffffffffffffffffffffffffffffffffffffff160217905550506001600360008373ffffffffffffffffffffffffffffffffffffffff1673ffffffffffffffffffffffffffffffffffffffff16815260200190815260200160002060006101000a81548160ff0219169083151502179055505b50565b600760010160149054906101000a900460ff1615611c585760036007811115611b9a57fe5b600660009054906101000a900460ff166007811115611bb557fe5b101515611bf157611bf0600760000160009054906101000a900473ffffffffffffffffffffffffffffffffffffffff16600760050154611e06565b5b60046007811115611bfe57fe5b600660009054906101000a900460ff166007811115611c1957fe5b1415611c5357611c52600760020160009054906101000a900473ffffffffffffffffffffffffffffffffffffffff166007800154611e06565b5b611cbc565b60046007811115611c6557fe5b600660009054906101000a900460ff166007811115611c8057fe5b1415611cbb57611cba600760000160009054906101000a900473ffffffffffffffffffffffffffffffffffffffff16600760050154611e06565b5b5b565b6000600660006101000a81548160ff02191690836007811115611cdd57fe5b021790555033600760000160006101000a81548173ffffffffffffffffffffffffffffffffffffffff021916908373ffffffffffffffffffffffffffffffffffffffff1602179055506000600760010160006101000a81548173ffffffffffffffffffffffffffffffffffffffff021916908373ffffffffffffffffffffffffffffffffffffffff1602179055506000600760010160146101000a81548160ff0219169083151502179055506000600760020160006101000a81548173ffffffffffffffffffffffffffffffffffffffff021916908373ffffffffffffffffffffffffffffffffffffffff160217905550600060076003018190555060006007600401819055506000600760050181905550600060076006018190555060006007800181905550565b8173ffffffffffffffffffffffffffffffffffffffff166108fc829081150290604051600060405180830381858888f193505050501515611e4657600080fd5b806018600082825403925050819055505050565b815481835581811511611e8157818360005260206000209182019101611e809190611e86565b5b505050565b611ea891905b80821115611ea4576000816000905550600101611e8c565b5090565b905600a165627a7a7230582094aa3f94be3c893e1f6e370130fe1da64cbbe3b4f6115cdfcdc02cc06d9eb6800029",
  "source": "pragma solidity ^0.4.17;\n\ncontract SecessionWork {\n  // artist address\n  address artist;\n\n  // metadata for a Sale\n  struct Sale {\n    address seller;\n    address buyer;\n    bool escrowRequired;\n    address escrow;\n\n    // monies\n    uint256 price;\n    uint256 escrowReward;\n    uint256 sellerDeposit;\n    uint256 transitiveReward;\n    uint256 escrowDeposit;\n  }\n\n  // metadata for a RoyaltySale\n  struct RoyaltySale {\n    address seller;\n    address buyer;\n\n    // monies\n    uint256 price;\n    uint256 bps;\n    bool forSale;\n  }\n\n  // mapping for holding royalty tokens\n  mapping(address => uint256) royalties;\n  mapping(address => RoyaltySale) listRoyaltySales;\n  mapping(address => bool) isRoyaltyOwner;\n  address[] royaltyOwners;\n\n  // constant royalty basis points (1/100%) for artist\n  // is applied to every sale\n  uint256 artistRoyaltyBps;\n\n  // Transaction state\n  TransactionState transactionState;\n\n  // proposal by collector for sale\n  Sale listSale;\n\n  // actual sales that occurred\n  Sale lastSale;\n\n  // keccak256 hash of the initial secret.\n  // This must be used to transact the work (in addition to being the collector)\n  bytes32 private keccak256Secret;\n\n  // how much we have been sent, used to make sure there is no orphaned eth\n  uint256 private fundsHeld;\n\n  uint256 private FULL_BPS = 10000;\n\n  enum TransactionState {\n    Owned,\n    ForSale,\n    ValidBid,\n    BidAccepted,\n    ReadyForPurchase,\n    Purchased,\n    InTransit,\n    UnverifiedRecipt\n  }\n\n  // basic checks for ensuring only certain addresses can do certain things\n  modifier artistOnly() { require(msg.sender == artist); _; }\n  modifier collectorOnly() {\n    require(msg.sender == lastSale.buyer);\n    _;\n  }\n  modifier escrowOnly() { require(msg.sender == listSale.escrow); _; }\n  modifier buyerOnly() { require(msg.sender == listSale.buyer); _; }\n  modifier secretHolderOnly(string secret) {\n    require(keccak256Secret == keccak256(secret));\n    _;\n  }\n  modifier contractAddressesOnly() {\n    require(\n      msg.sender == listSale.buyer ||\n      msg.sender == listSale.seller ||\n      msg.sender == listSale.escrow\n    );\n    _;\n  }\n  modifier setupPhaseOnly() {\n    require(\n      uint(transactionState) <= uint(TransactionState.ReadyForPurchase)\n    );\n    _;\n  }\n\n  // register a work, will be added to the work array held by this contract\n  function SecessionWork(address artist_,\n                         uint256 artistRoyaltyBps_,\n                         string secret_) public {\n\n    // make sure the royalty percantage is < 100%\n    require(artistRoyaltyBps < FULL_BPS);\n\n    artistRoyaltyBps = artistRoyaltyBps_;\n    transactionState = TransactionState.Owned;\n    keccak256Secret = keccak256(secret_);\n\n    Sale memory registrationSale;\n    registrationSale.seller = address(0);\n    registrationSale.buyer = msg.sender;\n    registrationSale.price = 0;\n    registrationSale.transitiveReward = 0;\n    lastSale = registrationSale;\n\n    artist = artist_;\n\n    royalties[artist] = artistRoyaltyBps_;\n    addRoyaltyOwner(artist);\n\n    clearRoyaltySale(artist);\n  }\n\n  function addRoyaltyOwner(address newOwner_) private {\n    if (!isRoyaltyOwner[newOwner_]) {\n      royaltyOwners.push(newOwner_);\n      isRoyaltyOwner[newOwner_] = true;\n    }\n  }\n\n  function clearRoyaltySale(address sender_) private {\n    listRoyaltySales[sender_].bps = 0;\n    listRoyaltySales[sender_].price = 0;\n    listRoyaltySales[sender_].seller = address(0);\n    listRoyaltySales[sender_].buyer = address(0);\n    listRoyaltySales[sender_].forSale = false;\n  }\n\n  // list artist royalty for sale\n  function listArtistRoyaltyForSale(uint256 bps_,\n                                    uint256 price_,\n                                    address buyer_) external {\n    require(royalties[msg.sender] >= bps_);\n\n    listRoyaltySales[msg.sender].bps = bps_;\n    listRoyaltySales[msg.sender].price = price_;\n    listRoyaltySales[msg.sender].seller = msg.sender;\n    listRoyaltySales[msg.sender].buyer = buyer_;\n    listRoyaltySales[msg.sender].forSale = true;\n  }\n\n  function cancelArtistRoyaltyForSale() external {\n    require(listRoyaltySales[msg.sender].forSale);\n    clearRoyaltySale(msg.sender);\n  }\n\n  function buyArtistRoyaltyForSale(address seller_) external payable {\n    require(royalties[seller_] <= listRoyaltySales[seller_].bps);\n    require(listRoyaltySales[seller_].forSale);\n    require(listRoyaltySales[seller_].price == msg.value);\n    require(listRoyaltySales[seller_].buyer == msg.sender);\n\n    seller_.transfer(msg.value);\n\n    clearRoyaltySale(seller_);\n    clearRoyaltySale(msg.sender);\n    royalties[msg.sender] += listRoyaltySales[seller_].bps;\n    royalties[seller_] -= listRoyaltySales[seller_].bps;\n    addRoyaltyOwner(msg.sender);\n  }\n\n  // make a escrow-less listing\n  function listForDirectSale(uint256 price_,\n                             uint256 transitiveReward_,\n                             uint256 sellerDeposit_) external\n    collectorOnly()\n  {\n    transactionState = TransactionState.ForSale;\n    listSale.seller = msg.sender;\n    listSale.buyer = address(0);\n    listSale.escrowRequired = false;\n    listSale.escrow = address(0);\n    listSale.price = price_;\n    listSale.escrowReward = 0;\n    listSale.transitiveReward = transitiveReward_;\n    listSale.sellerDeposit = sellerDeposit_;\n    listSale.escrowDeposit = 0;\n  }\n\n  // make a listing\n  function listForEscrowSale(uint256 price_,\n                             address escrow_,\n                             uint256 escrowReward_,\n                             uint256 transitiveReward_,\n                             uint256 sellerDeposit_,\n                             uint256 escrowDeposit_) external\n    collectorOnly()\n  {\n    require (transactionState == TransactionState.Owned);\n    transactionState = TransactionState.ForSale;\n    listSale.seller = msg.sender;\n    listSale.buyer = address(0);\n    listSale.escrowRequired = true;\n    listSale.escrow = escrow_;\n    listSale.price = price_;\n    listSale.escrowReward = escrowReward_;\n    listSale.transitiveReward = transitiveReward_;\n    listSale.sellerDeposit = sellerDeposit_;\n    listSale.escrowDeposit = escrowDeposit_;\n  }\n\n  function returnFunds() internal {\n    if (listSale.escrowRequired) {\n      if (transactionState >= TransactionState.BidAccepted) {\n        sendPayment(listSale.seller, listSale.sellerDeposit);\n      }\n      if (transactionState == TransactionState.ReadyForPurchase) {\n        sendPayment(listSale.escrow, listSale.escrowDeposit);\n      }\n    } else if (transactionState == TransactionState.ReadyForPurchase) {\n        sendPayment(listSale.seller, listSale.sellerDeposit);\n    }\n  }\n\n  function clearListing() internal {\n    transactionState = TransactionState.Owned;\n    listSale.seller = msg.sender;\n    listSale.buyer = address(0);\n    listSale.escrowRequired = false;\n    listSale.escrow = address(0);\n    listSale.price = 0;\n    listSale.escrowReward = 0;\n    listSale.sellerDeposit = 0;\n    listSale.transitiveReward = 0;\n    listSale.escrowDeposit = 0;\n  }\n\n  // clear the listing\n  function cancelSale() external\n    contractAddressesOnly()\n    setupPhaseOnly()\n  {\n    returnFunds();\n    clearListing();\n  }\n\n  // bid for a chance to buy.\n  // highest bid always gets to be the buyer.\n  function bid(uint256 price_) external\n  {\n    require(transactionState == TransactionState.ForSale);\n    require(listSale.escrow != msg.sender);\n    if (price_ > listSale.price) {\n      listSale.price = price_;\n      listSale.buyer = msg.sender;\n      transactionState = TransactionState.ValidBid;\n    }\n  }\n\n  // accept the current best bid, put down seller deposit\n  function acceptBid() external payable\n    collectorOnly()\n  {\n    require(transactionState == TransactionState.ValidBid);\n    require(msg.value == listSale.sellerDeposit);\n    require(listSale.buyer != address(0)); // TODO replace with actual state\n    fundsHeld += msg.value;\n    if (listSale.escrowRequired) {\n      transactionState = TransactionState.BidAccepted;\n    } else {\n      transactionState = TransactionState.ReadyForPurchase;\n    }\n  }\n\n  // provide escrow deposit (to give incentive to shipping/insurance)\n  function acceptEscrow() external payable\n    escrowOnly()\n  {\n    require(transactionState == TransactionState.BidAccepted);\n    require(msg.value == listSale.escrowDeposit);\n    transactionState = TransactionState.ReadyForPurchase;\n    fundsHeld += msg.value;\n  }\n\n  // provide escrow reward (to go to shipping/insurance company)\n  function buy() external payable\n    buyerOnly()\n  {\n    require(transactionState == TransactionState.ReadyForPurchase);\n    require(\n      msg.value == (listSale.price + listSale.escrowReward + listSale.transitiveReward)\n    );\n    transactionState = TransactionState.Purchased;\n    fundsHeld += msg.value;\n  }\n\n  // function for marking shipped by the shipping/insurance company\n  function markShipped() external\n    collectorOnly()\n  {\n    require(transactionState == TransactionState.Purchased);\n    if (listSale.escrowRequired) {\n      transactionState = TransactionState.InTransit;\n    } else {\n      transactionState = TransactionState.UnverifiedRecipt;\n    }\n  }\n\n  // function for marking received by purchaser\n  function markReceived() external\n    escrowOnly()\n  {\n    require(transactionState == TransactionState.InTransit);\n    transactionState = TransactionState.UnverifiedRecipt;\n  }\n\n  // clear the listing\n  function sendPayment(address payee_, uint256 amount_) internal\n  {\n    payee_.transfer(amount_);\n    fundsHeld -= amount_;\n  }\n\n  // function for shipping/insurance company to verify the receipt\n  // initiates all transfers in check-effects-interactions\n  function verifyReceived(string secret_) external\n    buyerOnly()\n    secretHolderOnly(secret_)\n  {\n    require(transactionState == TransactionState.UnverifiedRecipt);\n\n    // process transactions\n    // seller sale price + reward from previous sale\n    uint256 sellerPayment =\n      listSale.sellerDeposit +\n      lastSale.transitiveReward;\n      listSale.price * (FULL_BPS - artistRoyaltyBps) / 10000 ;\n    sendPayment(listSale.seller, sellerPayment);\n\n    // escrow/shipping/insurance\n    uint256 escrowPayment =\n      listSale.escrowDeposit +\n      listSale.escrowReward * (FULL_BPS - artistRoyaltyBps) / 10000;\n    sendPayment(listSale.escrow, escrowPayment);\n\n    // artist royalty (fixed percentage + change from other transactions)\n\n    // loop through royalty holders and send royalties due\n    for(uint i = 0; i < royaltyOwners.length; ++i) {\n      uint256 royaltyPayment =\n        (listSale.price + listSale.escrowReward) * royalties[royaltyOwners[i]] / 10000;\n      sendPayment(royaltyOwners[i], royaltyPayment);\n    }\n    // send any change to artist, excepting the transitive reward\n    sendPayment(artist, fundsHeld - listSale.transitiveReward);\n\n    lastSale = listSale;\n    transactionState = TransactionState.Owned;\n    clearListing();\n  }\n}",
  "sourcePath": "/Users/ian/Secession/contracts/SecessionWork.sol",
  "compiler": {
    "name": "solc",
    "version": "0.4.18+commit.9cf6e910.Emscripten.clang"
  },
  "schemaVersion": "1.0.1",
  "updatedAt": "2017-12-21T21:01:13.722Z"
}