{
  "contractName": "SplitPurchaser",
  "abi": [
    {
      "constant": true,
      "inputs": [],
      "name": "totalSupply",
      "outputs": [
        {
          "name": "",
          "type": "uint256"
        }
      ],
      "payable": false,
      "stateMutability": "view",
      "type": "function"
    },
    {
      "constant": false,
      "inputs": [],
      "name": "claim",
      "outputs": [],
      "payable": false,
      "stateMutability": "nonpayable",
      "type": "function"
    },
    {
      "constant": false,
      "inputs": [],
      "name": "purchaseVehicle",
      "outputs": [],
      "payable": true,
      "stateMutability": "payable",
      "type": "function"
    },
    {
      "constant": true,
      "inputs": [
        {
          "name": "_who",
          "type": "address"
        }
      ],
      "name": "balanceOf",
      "outputs": [
        {
          "name": "",
          "type": "uint256"
        }
      ],
      "payable": false,
      "stateMutability": "view",
      "type": "function"
    },
    {
      "constant": true,
      "inputs": [],
      "name": "owner",
      "outputs": [
        {
          "name": "",
          "type": "address"
        }
      ],
      "payable": false,
      "stateMutability": "view",
      "type": "function"
    },
    {
      "constant": true,
      "inputs": [
        {
          "name": "",
          "type": "address"
        }
      ],
      "name": "released",
      "outputs": [
        {
          "name": "",
          "type": "uint256"
        }
      ],
      "payable": false,
      "stateMutability": "view",
      "type": "function"
    },
    {
      "constant": true,
      "inputs": [],
      "name": "getPrice",
      "outputs": [
        {
          "name": "",
          "type": "uint256"
        }
      ],
      "payable": false,
      "stateMutability": "view",
      "type": "function"
    },
    {
      "constant": false,
      "inputs": [
        {
          "name": "_buyer",
          "type": "address"
        },
        {
          "name": "_salePrice",
          "type": "uint256"
        }
      ],
      "name": "listVehicle",
      "outputs": [],
      "payable": false,
      "stateMutability": "nonpayable",
      "type": "function"
    },
    {
      "constant": false,
      "inputs": [
        {
          "name": "_to",
          "type": "address"
        },
        {
          "name": "_value",
          "type": "uint256"
        }
      ],
      "name": "transfer",
      "outputs": [
        {
          "name": "",
          "type": "bool"
        }
      ],
      "payable": false,
      "stateMutability": "nonpayable",
      "type": "function"
    },
    {
      "constant": true,
      "inputs": [
        {
          "name": "",
          "type": "address"
        }
      ],
      "name": "shares",
      "outputs": [
        {
          "name": "",
          "type": "uint256"
        }
      ],
      "payable": false,
      "stateMutability": "view",
      "type": "function"
    },
    {
      "constant": true,
      "inputs": [],
      "name": "totalReleased",
      "outputs": [
        {
          "name": "",
          "type": "uint256"
        }
      ],
      "payable": false,
      "stateMutability": "view",
      "type": "function"
    },
    {
      "constant": false,
      "inputs": [
        {
          "name": "newOwner",
          "type": "address"
        }
      ],
      "name": "transferOwnership",
      "outputs": [],
      "payable": false,
      "stateMutability": "nonpayable",
      "type": "function"
    },
    {
      "inputs": [
        {
          "name": "_ownerShares",
          "type": "uint256"
        },
        {
          "name": "_vehicleAddress",
          "type": "address"
        }
      ],
      "payable": false,
      "stateMutability": "nonpayable",
      "type": "constructor"
    },
    {
      "payable": true,
      "stateMutability": "payable",
      "type": "fallback"
    },
    {
      "anonymous": false,
      "inputs": [
        {
          "indexed": true,
          "name": "from",
          "type": "address"
        },
        {
          "indexed": true,
          "name": "to",
          "type": "address"
        },
        {
          "indexed": false,
          "name": "value",
          "type": "uint256"
        }
      ],
      "name": "Transfer",
      "type": "event"
    },
    {
      "anonymous": false,
      "inputs": [
        {
          "indexed": true,
          "name": "previousOwner",
          "type": "address"
        },
        {
          "indexed": true,
          "name": "newOwner",
          "type": "address"
        }
      ],
      "name": "OwnershipTransferred",
      "type": "event"
    }
  ],
  "bytecode": "0x60606040526000600555341561001457600080fd5b6040516040806107d4833981016040528080519190602001805160008054600160a060020a03338116600160a060020a031992831681178455600280549290951691909216179092556001859055908152600360205260409020929092555050610751806100836000396000f3006060604052600436106100a05763ffffffff60e060020a60003504166318160ddd81146100a25780634e71d92d146100c7578063590e56d0146100da57806370a08231146100e25780638da5cb5b146101015780639852595c1461013057806398d5fdca1461014f5780639e84f27c14610162578063a9059cbb14610184578063ce7c2ac2146101ba578063e33b7de3146101d9578063f2fde38b146101ec575b005b34156100ad57600080fd5b6100b561020b565b60405190815260200160405180910390f35b34156100d257600080fd5b6100a0610211565b6100a0610367565b34156100ed57600080fd5b6100b5600160a060020a03600435166103d8565b341561010c57600080fd5b6101146103f3565b604051600160a060020a03909116815260200160405180910390f35b341561013b57600080fd5b6100b5600160a060020a0360043516610402565b341561015a57600080fd5b6100b5610414565b341561016d57600080fd5b6100a0600160a060020a0360043516602435610480565b341561018f57600080fd5b6101a6600160a060020a0360043516602435610509565b604051901515815260200160405180910390f35b34156101c557600080fd5b6100b5600160a060020a0360043516610604565b34156101e457600080fd5b6100b5610616565b34156101f757600080fd5b6100a0600160a060020a036004351661061c565b60015481565b33600160a060020a038116600090815260036020526040812054819081901161023957600080fd5b60055461025790600160a060020a033016319063ffffffff6106b716565b600160a060020a03841660009081526004602090815260408083205460015460039093529220549294506102b3926102a7919061029b90879063ffffffff6106d116565b9063ffffffff6106fc16565b9063ffffffff61071316565b90508015156102c157600080fd5b600160a060020a03301631819010156102d957600080fd5b600160a060020a038316600090815260046020526040902054610302908263ffffffff6106b716565b600160a060020a03841660009081526004602052604090205560055461032e908263ffffffff6106b716565b600555600160a060020a03831681156108fc0282604051600060405180830381858888f19350505050151561036257600080fd5b505050565b60005433600160a060020a0390811691161461038257600080fd5b600254600160a060020a0316634adf5351346040518263ffffffff1660e060020a0281526004016000604051808303818588803b15156103c157600080fd5b6125ee5a03f115156103d257600080fd5b50505050565b600160a060020a031660009081526003602052604090205490565b600054600160a060020a031681565b60046020526000908152604090205481565b6002546000908190600160a060020a03166398d5fdca82604051602001526040518163ffffffff1660e060020a028152600401602060405180830381600087803b151561046057600080fd5b6102c65a03f1151561047157600080fd5b50505060405180519392505050565b60005433600160a060020a0390811691161461049b57600080fd5b600254600160a060020a03166396830abe838360405160e060020a63ffffffff8516028152600160a060020a0390921660048301526024820152604401600060405180830381600087803b15156104f157600080fd5b6102c65a03f1151561050257600080fd5b5050505050565b6000600160a060020a038316151561052057600080fd5b600160a060020a03331660009081526003602052604090205482111561054557600080fd5b600160a060020a03331660009081526003602052604090205461056e908363ffffffff61071316565b600160a060020a0333811660009081526003602052604080822093909355908516815220546105a3908363ffffffff6106b716565b600160a060020a0380851660008181526003602052604090819020939093559133909116907fddf252ad1be2c89b69c2b068fc378daa952ba7f163c4a11628f55a4df523b3ef9085905190815260200160405180910390a350600192915050565b60036020526000908152604090205481565b60055481565b60005433600160a060020a0390811691161461063757600080fd5b600160a060020a038116151561064c57600080fd5b600054600160a060020a0380831691167f8be0079c531659141344cd1fd0a4f28419497f9722a3daafe3b4186f6b6457e060405160405180910390a36000805473ffffffffffffffffffffffffffffffffffffffff1916600160a060020a0392909216919091179055565b6000828201838110156106c657fe5b8091505b5092915050565b6000808315156106e457600091506106ca565b508282028284828115156106f457fe5b04146106c657fe5b600080828481151561070a57fe5b04949350505050565b60008282111561071f57fe5b509003905600a165627a7a72305820f9f6ea7f7716fa289ed5ffc283a7c0d8553ea4a61c04c82daf355853ac65dae30029",
  "source": "pragma solidity ^0.4.18;\n\n\nimport 'zeppelin-solidity/contracts/token/ERC20Basic.sol';\nimport 'zeppelin-solidity/contracts/math/SafeMath.sol';\nimport './BackableVehicle.sol';\n\n\n/**\n* @title Split purchaser\n* @dev Contract that purchases a Backable vehicle and splits sale payments\n*      Modification of SplitPayment\n*/\ncontract SplitPurchaser is Ownable, ERC20Basic {\n\n  // BackableVehicle to be purchased\n  BackableVehicle backableVehicle;\n\n  using SafeMath for uint256;\n\n  mapping(address => uint256) public shares;\n  mapping(address => uint256) public released;\n  uint256 public totalReleased = 0;\n\n  /**\n  * @dev Creates the payment splitter, with creator as sole owner\n  * @param _ownerShares initial token pool\n  * @param _vehicleAddress BackableVehicle this payment will be purchasing\n  */\n  function SplitPurchaser(uint256 _ownerShares, address _vehicleAddress)\n      Ownable()\n      public {\n    backableVehicle = BackableVehicle(_vehicleAddress);\n    totalSupply = _ownerShares;\n    shares[msg.sender] = _ownerShares;\n  }\n\n  /**\n  * @dev transfer tokens from one address to another\n  * @param _to The address to transfer to.\n  * @param _value The amount to be transferred.\n  */\n  function transfer(address _to, uint256 _value) public returns (bool) {\n    require(_to != address(0));\n    require(_value <= shares[msg.sender]);\n\n    // SafeMath.sub will throw if there is not enough balance.\n    shares[msg.sender] = shares[msg.sender].sub(_value);\n    shares[_to] = shares[_to].add(_value);\n    Transfer(msg.sender, _to, _value);\n    return true;\n  }\n\n  /**\n  * @dev Get price of vehicle\n  */\n  function getPrice() public view returns (uint256) {\n    uint256 price = backableVehicle.getPrice();\n    return price;\n  }\n\n  /**\n  * @dev Purchase the vehicle\n  */\n  function purchaseVehicle() public payable onlyOwner {\n    backableVehicle.purchaseListing.value(msg.value)();\n  }\n\n  /**\n  * @dev List the vehicle\n  */\n  function listVehicle(address _buyer, uint256 _salePrice) public onlyOwner {\n    backableVehicle.listForSale(_buyer, _salePrice);\n  }\n\n  /**\n  * @dev get the balance of an address\n  */\n  function balanceOf(address _who) public view returns (uint256) {\n    return shares[_who];\n  }\n\n  /**\n   * @dev Claim your share of the balance.\n   */\n  function claim() public {\n    address payee = msg.sender;\n\n    require(shares[payee] > 0);\n\n    uint256 totalReceived = this.balance.add(totalReleased);\n    uint256 payment = totalReceived.mul(shares[payee]).div(totalSupply).sub(released[payee]);\n\n    require(payment != 0);\n    require(this.balance >= payment);\n\n    released[payee] = released[payee].add(payment);\n    totalReleased = totalReleased.add(payment);\n\n    payee.transfer(payment);\n  }\n\n  /**\n   * @dev payable fallback\n   */\n  function () public payable {}\n\n}",
  "sourcePath": "/Users/ian/provenance/contracts/SplitPurchaser.sol",
  "compiler": {
    "name": "solc",
    "version": "0.4.18+commit.9cf6e910.Emscripten.clang"
  },
  "schemaVersion": "1.0.1",
  "updatedAt": "2018-01-21T19:44:17.389Z"
}